{
  "_format": "hh-sol-artifact-1",
  "contractName": "Auctions",
  "sourceName": "contracts/Auctions.sol",
  "abi": [
    {
      "anonymous": false,
      "inputs": [
        {
          "indexed": true,
          "internalType": "uint256",
          "name": "tokenId",
          "type": "uint256"
        }
      ],
      "name": "AdminEndAuction",
      "type": "event"
    },
    {
      "anonymous": false,
      "inputs": [
        {
          "indexed": true,
          "internalType": "uint256",
          "name": "tokenId",
          "type": "uint256"
        }
      ],
      "name": "AuctionConcluded",
      "type": "event"
    },
    {
      "anonymous": false,
      "inputs": [
        {
          "indexed": true,
          "internalType": "uint256",
          "name": "tokenId",
          "type": "uint256"
        },
        {
          "indexed": true,
          "internalType": "uint256",
          "name": "bid",
          "type": "uint256"
        },
        {
          "indexed": true,
          "internalType": "address",
          "name": "bidder",
          "type": "address"
        }
      ],
      "name": "Bid",
      "type": "event"
    },
    {
      "anonymous": false,
      "inputs": [
        {
          "indexed": true,
          "internalType": "uint256",
          "name": "tokenId",
          "type": "uint256"
        }
      ],
      "name": "EndAuction",
      "type": "event"
    },
    {
      "anonymous": false,
      "inputs": [
        {
          "indexed": true,
          "internalType": "uint256",
          "name": "tokenId",
          "type": "uint256"
        }
      ],
      "name": "OnAuction",
      "type": "event"
    },
    {
      "inputs": [
        {
          "internalType": "uint256",
          "name": "_tokenId",
          "type": "uint256"
        }
      ],
      "name": "bid",
      "outputs": [],
      "stateMutability": "nonpayable",
      "type": "function"
    },
    {
      "inputs": [
        {
          "internalType": "uint256",
          "name": "_tokenId",
          "type": "uint256"
        }
      ],
      "name": "claim",
      "outputs": [],
      "stateMutability": "nonpayable",
      "type": "function"
    },
    {
      "inputs": [
        {
          "internalType": "uint256",
          "name": "_tokenId",
          "type": "uint256"
        }
      ],
      "name": "endAuction",
      "outputs": [],
      "stateMutability": "nonpayable",
      "type": "function"
    },
    {
      "inputs": [
        {
          "internalType": "address",
          "name": "nftMarketAddress",
          "type": "address"
        }
      ],
      "name": "initialize",
      "outputs": [],
      "stateMutability": "nonpayable",
      "type": "function"
    },
    {
      "inputs": [
        {
          "internalType": "uint256",
          "name": "_tokenId",
          "type": "uint256"
        },
        {
          "internalType": "uint256",
          "name": "_auctionId",
          "type": "uint256"
        },
        {
          "internalType": "uint256",
          "name": "_startPrice",
          "type": "uint256"
        },
        {
          "internalType": "uint256",
          "name": "_startTime",
          "type": "uint256"
        },
        {
          "internalType": "uint256",
          "name": "_endTime",
          "type": "uint256"
        },
        {
          "internalType": "address[]",
          "name": "_feeAddresses",
          "type": "address[]"
        },
        {
          "internalType": "uint256[]",
          "name": "_feePercentages",
          "type": "uint256[]"
        }
      ],
      "name": "putForAuction",
      "outputs": [],
      "stateMutability": "nonpayable",
      "type": "function"
    }
  ],
  "bytecode": "0x608060405234801561001057600080fd5b506118f1806100206000396000f3fe608060405234801561001057600080fd5b50600436106100575760003560e01c8063379607f51461005c578063454a2ab314610071578063b9a2de3a14610084578063c4d66de814610097578063e1f13a10146100aa575b600080fd5b61006f61006a36600461143c565b6100bd565b005b61006f61007f36600461143c565b61041a565b61006f61009236600461143c565b610995565b61006f6100a536600461127f565b610b3d565b61006f6100b836600461146c565b610c20565b603a5460405163463d31d760e11b8152600481018390526000916001600160a01b031690638c7a63ae9060240160006040518083038186803b15801561010257600080fd5b505afa158015610116573d6000803e3d6000fd5b505050506040513d6000823e601f3d908101601f1916820160405261013e91908101906112be565b905042816101a0015160a00151106101835760405162461bcd60e51b8152602060048201526003602482015262414e4560e81b60448201526064015b60405180910390fd5b600082815260356020526040812054603480549192916101a590600190611860565b815481106101c357634e487b7160e01b600052603260045260246000fd5b60009182526020808320909101548083526035909152604090912083905560348054919250906101f590600190611860565b8154811061021357634e487b7160e01b600052603260045260246000fd5b90600052602060002001546034838154811061023f57634e487b7160e01b600052603260045260246000fd5b600091825260209091200155603480548061026a57634e487b7160e01b600052603160045260246000fd5b6000828152602080822060001990840181018390559092019092558481018290528582526038815260408083206101a0870151815460018082018455928652948490208151600790960201948555928301519084015581810151600284015560608201516003840155608082015160048085019190915560a0830151600585015560c090920151600690930180546001600160a01b0319166001600160a01b03948516179055603a54905163379607f560e01b81529182018790529091169063379607f590602401600060405180830381600087803b15801561034c57600080fd5b505af1158015610360573d6000803e3d6000fd5b50506060610120860181905261010086015250506101a083015160c001516001600160a01b0390811660e0850152603a54604051637108204f60e11b815291169063e210409e906103b79087908790600401611631565b600060405180830381600087803b1580156103d157600080fd5b505af11580156103e5573d6000803e3d6000fd5b50506040518692507fd687820e076e6906aece8506ce68a6f437fc1c65b1811782ef613b73f1baadf39150600090a250505050565b6002600154141561046d5760405162461bcd60e51b815260206004820152601f60248201527f5265656e7472616e637947756172643a207265656e7472616e742063616c6c00604482015260640161017a565b6002600155603a5460405163463d31d760e11b8152600481018390526000916001600160a01b031690638c7a63ae9060240160006040518083038186803b1580156104b757600080fd5b505afa1580156104cb573d6000803e3d6000fd5b505050506040513d6000823e601f3d908101601f191682016040526104f391908101906112be565b603a546040516310771b5f60e01b8152600481018590529192506000916001600160a01b03909116906310771b5f9060240160206040518083038186803b15801561053d57600080fd5b505afa158015610551573d6000803e3d6000fd5b505050506040513d601f19601f8201168201806040525081019061057591906112a2565b9050336001600160a01b03821614156105c05760405162461bcd60e51b815260206004820152600d60248201526c1858d8d95cdcc819195b9a5959609a1b604482015260640161017a565b81602001516105f75760405162461bcd60e51b81526020600482015260036024820152624e464160e81b604482015260640161017a565b42826101a0015160a00151116106345760405162461bcd60e51b8152602060048201526002602482015261414560f01b604482015260640161017a565b6101a082015160c001516001600160a01b031633141561067c5760405162461bcd60e51b815260206004820152600360248201526224212160e91b604482015260640161017a565b603a546040805163978dba6760e01b815290516000926001600160a01b03169163978dba67916004808301926020929190829003018186803b1580156106c157600080fd5b505afa1580156106d5573d6000803e3d6000fd5b505050506040513d601f19601f820116820180604052508101906106f991906112a2565b603a54604051636eb1769f60e11b81523360048201526001600160a01b03918216602482015291169063dd62ed3e9060440160206040518083038186803b15801561074357600080fd5b505afa158015610757573d6000803e3d6000fd5b505050506040513d601f19601f8201168201806040525081019061077b9190611454565b6101a084015160c0810151606090910151919250906001600160a01b038216156107e1578281106107dc5760405162461bcd60e51b815260206004820152600b60248201526a62696420746f6f206c6f7760a81b604482015260640161017a565b610827565b82856101a0015160400151106108275760405162461bcd60e51b815260206004820152600b60248201526a62696420746f6f206c6f7760a81b604482015260640161017a565b6101a0850180513360c0909101819052905160600184905260008781526036602090815260408083208054600180820183559185528385200180546001600160a01b031916861790558a8452603783528184208054918201815584529190922001859055603a549051639f04996d60e01b81526004810189905260248101929092526001600160a01b031690639f04996d90604401600060405180830381600087803b1580156108d657600080fd5b505af11580156108ea573d6000803e3d6000fd5b5050603a54604051637108204f60e11b81526001600160a01b03909116925063e210409e91506109209089908990600401611631565b600060405180830381600087803b15801561093a57600080fd5b505af115801561094e573d6000803e3d6000fd5b5050506101a08601516060015160405133925088907ffd7cfbd219ff1e7365436fb2930a026fa6704a1e0bb39ad104f0485c8c01124d90600090a450506001805550505050565b6033546001600160a01b031633146109dc5760405162461bcd60e51b815260206004820152600a60248201526927b7363c9037bbb732b960b11b604482015260640161017a565b603a5460405163463d31d760e11b8152600481018390526000916001600160a01b031690638c7a63ae9060240160006040518083038186803b158015610a2157600080fd5b505afa158015610a35573d6000803e3d6000fd5b505050506040513d6000823e601f3d908101601f19168201604052610a5d91908101906112be565b9050806020015115156001151514610a9d5760405162461bcd60e51b81526020600482015260036024820152624e464160e81b604482015260640161017a565b6101a08101514260a090910152603a54604051637108204f60e11b81526001600160a01b039091169063e210409e90610adc9085908590600401611631565b600060405180830381600087803b158015610af657600080fd5b505af1158015610b0a573d6000803e3d6000fd5b50506040518492507f531dc87d75e7b31f95e29e60ac8d4b38736fd6805bd465b743eaf811f519abb69150600090a25050565b600054610100900460ff16610b585760005460ff1615610b5c565b303b155b610bbf5760405162461bcd60e51b815260206004820152602e60248201527f496e697469616c697a61626c653a20636f6e747261637420697320616c72656160448201526d191e481a5b9a5d1a585b1a5e995960921b606482015260840161017a565b600054610100900460ff16158015610be1576000805461ffff19166101011790555b60338054336001600160a01b031991821617909155603a80549091166001600160a01b0384161790558015610c1c576000805461ff00191690555b5050565b603a5460405163463d31d760e11b8152600481018990526000916001600160a01b031690638c7a63ae9060240160006040518083038186803b158015610c6557600080fd5b505afa158015610c79573d6000803e3d6000fd5b505050506040513d6000823e601f3d908101601f19168201604052610ca191908101906112be565b603a546040516310771b5f60e01b8152600481018b90529192506000916001600160a01b03909116906310771b5f9060240160206040518083038186803b158015610ceb57600080fd5b505afa158015610cff573d6000803e3d6000fd5b505050506040513d601f19601f82011682018060405250810190610d2391906112a2565b9050336001600160a01b03821614610d6d5760405162461bcd60e51b815260206004820152600d60248201526c1858d8d95cdcc819195b9a5959609a1b604482015260640161017a565b815115610da25760405162461bcd60e51b815260206004820152600360248201526241465360e81b604482015260640161017a565b604082015115610dda5760405162461bcd60e51b815260206004820152600360248201526210519360ea1b604482015260640161017a565b602082015115610e125760405162461bcd60e51b815260206004820152600360248201526241464160e81b604482015260640161017a565b60008711610e4e5760405162461bcd60e51b815260206004820152600960248201526862616420707269636560b81b604482015260640161017a565b8486108015610e68575084610e6587610258611848565b11155b610e9f5760405162461bcd60e51b81526020600482015260086024820152676261642074696d6560c01b604482015260640161017a565b8251845114610ee45760405162461bcd60e51b81526020600482015260116024820152706261642066656573207365657469676e7360781b604482015260640161017a565b6040805160e0810182528a815260208082018b90528183018a9052600060608301819052608083018a905260a0830189905260c083018190526101a0860192909252600185820181905261012086018890526101008601879052603480548e8552603590935284842083905590820181559091527f46bddb1178e94d7f2892ff5f366840eb658911794f2c3a44c450aa2c505186c1018a9055603a549051637108204f60e11b81526001600160a01b039091169063e210409e90610fae908c908690600401611631565b600060405180830381600087803b158015610fc857600080fd5b505af1158015610fdc573d6000803e3d6000fd5b50506040518b92507f887702fcb028eae7e858c16c16403cc2d8a6a8557a72b421f0c597e406e519a19150600090a2505050505050505050565b8051611021816118a3565b919050565b600082601f830112611036578081fd5b8151602061104b61104683611824565b6117f3565b80838252828201915082860187848660051b890101111561106a578586fd5b855b8581101561109157815161107f816118a3565b8452928401929084019060010161106c565b5090979650505050505050565b600082601f8301126110ae578081fd5b813560206110be61104683611824565b80838252828201915082860187848660051b89010111156110dd578586fd5b855b85811015611091578135845292840192908401906001016110df565b600082601f83011261110b578081fd5b8151602061111b61104683611824565b80838252828201915082860187848660051b890101111561113a578586fd5b855b858110156110915781518452928401929084019060010161113c565b8051801515811461102157600080fd5b600060e08284031215611179578081fd5b60405160e0810181811067ffffffffffffffff8211171561119c5761119c61188d565b8060405250809150825181526020830151602082015260408301516040820152606083015160608201526080830151608082015260a083015160a08201526111e660c08401611016565b60c08201525092915050565b600060c08284031215611203578081fd5b60405160c0810181811067ffffffffffffffff821117156112265761122661188d565b80604052508091508251815260208301516020820152604083015160408201526060830151606082015260808301516005811061126257600080fd5b608082015261127360a08401611016565b60a08201525092915050565b600060208284031215611290578081fd5b813561129b816118a3565b9392505050565b6000602082840312156112b3578081fd5b815161129b816118a3565b6000602082840312156112cf578081fd5b815167ffffffffffffffff808211156112e6578283fd5b9083019061032082860312156112fa578283fd5b6113026117c9565b61130b83611158565b815261131960208401611158565b602082015261132a60408401611158565b604082015261133b60608401611158565b60608201526080830151608082015260a083015160a082015261136060c08401611016565b60c082015261137160e08401611016565b60e08201526101008084015183811115611389578586fd5b611395888287016110fb565b82840152505061012080840151838111156113ae578586fd5b6113ba88828701611026565b82840152505061014080840151838111156113d3578586fd5b6113df888287016110fb565b82840152505061016080840151838111156113f8578586fd5b61140488828701611026565b828401525050610180915061141b868385016111f2565b8282015261142d866102408501611168565b6101a082015295945050505050565b60006020828403121561144d578081fd5b5035919050565b600060208284031215611465578081fd5b5051919050565b600080600080600080600060e0888a031215611486578283fd5b87359650602080890135965060408901359550606089013594506080890135935060a089013567ffffffffffffffff808211156114c1578485fd5b818b0191508b601f8301126114d4578485fd5b81356114e261104682611824565b8082825285820191508585018f878560051b8801011115611501578889fd5b8895505b8386101561152c578035611518816118a3565b835260019590950194918601918601611505565b509650505060c08b0135925080831115611544578384fd5b50506115528a828b0161109e565b91505092959891949750929550565b6000815180845260208085019450808401835b838110156115995781516001600160a01b031687529582019590820190600101611574565b509495945050505050565b6000815180845260208085019450808401835b83811015611599578151875295820195908201906001016115b7565b8051825260208101516020830152604081015160408301526060810151606083015260808101516005811061161857634e487b7160e01b600052602160045260246000fd5b608083015260a0908101516001600160a01b0316910152565b8281526040602082015261164a60408201835115159052565b6000602083015161165f606084018215159052565b506040830151801515608084015250606083015180151560a084015250608083015160c083015260a083015160e083015260c08301516101006116ac818501836001600160a01b03169052565b60e085015191506101206116ca818601846001600160a01b03169052565b8186015192506101409150610320828601526116ea6103608601846115a4565b9250808601519050603f1961016081878603018188015261170b8584611561565b9450838801519350610180925081878603018388015261172b85856115a4565b9450808801519350506101a081878603018188015261174a8585611561565b94508288015193506117606101c08801856115d3565b870151805161028088015260208101516102a088015260408101516102c088015260608101516102e0880152608081015161030088015260a081015161032088015260c08101516001600160a01b031661034088015292506117c0915050565b50949350505050565b6040516101c0810167ffffffffffffffff811182821017156117ed576117ed61188d565b60405290565b604051601f8201601f1916810167ffffffffffffffff8111828210171561181c5761181c61188d565b604052919050565b600067ffffffffffffffff82111561183e5761183e61188d565b5060051b60200190565b6000821982111561185b5761185b611877565b500190565b60008282101561187257611872611877565b500390565b634e487b7160e01b600052601160045260246000fd5b634e487b7160e01b600052604160045260246000fd5b6001600160a01b03811681146118b857600080fd5b5056fea2646970667358221220afe489afe3abee4e5a2ca3388a7207c26babde327194d2f681c7c6640c73d17564736f6c63430008040033",
  "linkReferences": {},
  "deployedLinkReferences": {}
}