{
  "_format": "hh-sol-artifact-1",
  "contractName": "ERC721Standard",
  "sourceName": "contracts/tokens/ERC721Standard.sol",
  "abi": [
    {
      "inputs": [
        {
          "internalType": "string",
          "name": "_name",
          "type": "string"
        },
        {
          "internalType": "string",
          "name": "_symbol",
          "type": "string"
        }
      ],
      "stateMutability": "nonpayable",
      "type": "constructor"
    },
    {
      "anonymous": false,
      "inputs": [
        {
          "indexed": true,
          "internalType": "address",
          "name": "owner",
          "type": "address"
        },
        {
          "indexed": true,
          "internalType": "address",
          "name": "approved",
          "type": "address"
        },
        {
          "indexed": true,
          "internalType": "uint256",
          "name": "tokenId",
          "type": "uint256"
        }
      ],
      "name": "Approval",
      "type": "event"
    },
    {
      "anonymous": false,
      "inputs": [
        {
          "indexed": true,
          "internalType": "address",
          "name": "owner",
          "type": "address"
        },
        {
          "indexed": true,
          "internalType": "address",
          "name": "operator",
          "type": "address"
        },
        {
          "indexed": false,
          "internalType": "bool",
          "name": "approved",
          "type": "bool"
        }
      ],
      "name": "ApprovalForAll",
      "type": "event"
    },
    {
      "anonymous": false,
      "inputs": [
        {
          "indexed": true,
          "internalType": "bytes32",
          "name": "role",
          "type": "bytes32"
        },
        {
          "indexed": true,
          "internalType": "bytes32",
          "name": "previousAdminRole",
          "type": "bytes32"
        },
        {
          "indexed": true,
          "internalType": "bytes32",
          "name": "newAdminRole",
          "type": "bytes32"
        }
      ],
      "name": "RoleAdminChanged",
      "type": "event"
    },
    {
      "anonymous": false,
      "inputs": [
        {
          "indexed": true,
          "internalType": "bytes32",
          "name": "role",
          "type": "bytes32"
        },
        {
          "indexed": true,
          "internalType": "address",
          "name": "account",
          "type": "address"
        },
        {
          "indexed": true,
          "internalType": "address",
          "name": "sender",
          "type": "address"
        }
      ],
      "name": "RoleGranted",
      "type": "event"
    },
    {
      "anonymous": false,
      "inputs": [
        {
          "indexed": true,
          "internalType": "bytes32",
          "name": "role",
          "type": "bytes32"
        },
        {
          "indexed": true,
          "internalType": "address",
          "name": "account",
          "type": "address"
        },
        {
          "indexed": true,
          "internalType": "address",
          "name": "sender",
          "type": "address"
        }
      ],
      "name": "RoleRevoked",
      "type": "event"
    },
    {
      "anonymous": false,
      "inputs": [
        {
          "indexed": true,
          "internalType": "address",
          "name": "from",
          "type": "address"
        },
        {
          "indexed": true,
          "internalType": "address",
          "name": "to",
          "type": "address"
        },
        {
          "indexed": true,
          "internalType": "uint256",
          "name": "tokenId",
          "type": "uint256"
        }
      ],
      "name": "Transfer",
      "type": "event"
    },
    {
      "inputs": [],
      "name": "DEFAULT_ADMIN_ROLE",
      "outputs": [
        {
          "internalType": "bytes32",
          "name": "",
          "type": "bytes32"
        }
      ],
      "stateMutability": "view",
      "type": "function"
    },
    {
      "inputs": [],
      "name": "MINTER_ROLE",
      "outputs": [
        {
          "internalType": "bytes32",
          "name": "",
          "type": "bytes32"
        }
      ],
      "stateMutability": "view",
      "type": "function"
    },
    {
      "inputs": [],
      "name": "UNIT",
      "outputs": [
        {
          "internalType": "uint256",
          "name": "",
          "type": "uint256"
        }
      ],
      "stateMutability": "view",
      "type": "function"
    },
    {
      "inputs": [
        {
          "internalType": "address",
          "name": "to",
          "type": "address"
        },
        {
          "internalType": "uint256",
          "name": "tokenId",
          "type": "uint256"
        }
      ],
      "name": "approve",
      "outputs": [],
      "stateMutability": "nonpayable",
      "type": "function"
    },
    {
      "inputs": [
        {
          "internalType": "address",
          "name": "owner",
          "type": "address"
        }
      ],
      "name": "balanceOf",
      "outputs": [
        {
          "internalType": "uint256",
          "name": "",
          "type": "uint256"
        }
      ],
      "stateMutability": "view",
      "type": "function"
    },
    {
      "inputs": [
        {
          "internalType": "address[]",
          "name": "_to",
          "type": "address[]"
        },
        {
          "internalType": "string[]",
          "name": "_uri",
          "type": "string[]"
        }
      ],
      "name": "batchMint",
      "outputs": [],
      "stateMutability": "nonpayable",
      "type": "function"
    },
    {
      "inputs": [],
      "name": "currentTokenId",
      "outputs": [
        {
          "internalType": "uint256",
          "name": "",
          "type": "uint256"
        }
      ],
      "stateMutability": "view",
      "type": "function"
    },
    {
      "inputs": [
        {
          "internalType": "uint256",
          "name": "tokenId",
          "type": "uint256"
        }
      ],
      "name": "getApproved",
      "outputs": [
        {
          "internalType": "address",
          "name": "",
          "type": "address"
        }
      ],
      "stateMutability": "view",
      "type": "function"
    },
    {
      "inputs": [
        {
          "internalType": "address",
          "name": "to",
          "type": "address"
        }
      ],
      "name": "getBalance",
      "outputs": [
        {
          "internalType": "uint256",
          "name": "",
          "type": "uint256"
        }
      ],
      "stateMutability": "view",
      "type": "function"
    },
    {
      "inputs": [
        {
          "internalType": "bytes32",
          "name": "role",
          "type": "bytes32"
        }
      ],
      "name": "getRoleAdmin",
      "outputs": [
        {
          "internalType": "bytes32",
          "name": "",
          "type": "bytes32"
        }
      ],
      "stateMutability": "view",
      "type": "function"
    },
    {
      "inputs": [
        {
          "internalType": "address",
          "name": "to",
          "type": "address"
        },
        {
          "internalType": "uint256",
          "name": "index",
          "type": "uint256"
        }
      ],
      "name": "getTokenId",
      "outputs": [
        {
          "internalType": "uint256",
          "name": "",
          "type": "uint256"
        }
      ],
      "stateMutability": "view",
      "type": "function"
    },
    {
      "inputs": [
        {
          "internalType": "bytes32",
          "name": "role",
          "type": "bytes32"
        },
        {
          "internalType": "address",
          "name": "account",
          "type": "address"
        }
      ],
      "name": "grantRole",
      "outputs": [],
      "stateMutability": "nonpayable",
      "type": "function"
    },
    {
      "inputs": [
        {
          "internalType": "bytes32",
          "name": "role",
          "type": "bytes32"
        },
        {
          "internalType": "address",
          "name": "account",
          "type": "address"
        }
      ],
      "name": "hasRole",
      "outputs": [
        {
          "internalType": "bool",
          "name": "",
          "type": "bool"
        }
      ],
      "stateMutability": "view",
      "type": "function"
    },
    {
      "inputs": [
        {
          "internalType": "address",
          "name": "owner",
          "type": "address"
        },
        {
          "internalType": "address",
          "name": "operator",
          "type": "address"
        }
      ],
      "name": "isApprovedForAll",
      "outputs": [
        {
          "internalType": "bool",
          "name": "",
          "type": "bool"
        }
      ],
      "stateMutability": "view",
      "type": "function"
    },
    {
      "inputs": [
        {
          "internalType": "address",
          "name": "_to",
          "type": "address"
        },
        {
          "internalType": "string",
          "name": "_uri",
          "type": "string"
        }
      ],
      "name": "mint",
      "outputs": [],
      "stateMutability": "nonpayable",
      "type": "function"
    },
    {
      "inputs": [],
      "name": "name",
      "outputs": [
        {
          "internalType": "string",
          "name": "",
          "type": "string"
        }
      ],
      "stateMutability": "view",
      "type": "function"
    },
    {
      "inputs": [
        {
          "internalType": "uint256",
          "name": "tokenId",
          "type": "uint256"
        }
      ],
      "name": "ownerOf",
      "outputs": [
        {
          "internalType": "address",
          "name": "",
          "type": "address"
        }
      ],
      "stateMutability": "view",
      "type": "function"
    },
    {
      "inputs": [
        {
          "internalType": "bytes32",
          "name": "role",
          "type": "bytes32"
        },
        {
          "internalType": "address",
          "name": "account",
          "type": "address"
        }
      ],
      "name": "renounceRole",
      "outputs": [],
      "stateMutability": "nonpayable",
      "type": "function"
    },
    {
      "inputs": [
        {
          "internalType": "bytes32",
          "name": "role",
          "type": "bytes32"
        },
        {
          "internalType": "address",
          "name": "account",
          "type": "address"
        }
      ],
      "name": "revokeRole",
      "outputs": [],
      "stateMutability": "nonpayable",
      "type": "function"
    },
    {
      "inputs": [
        {
          "internalType": "address",
          "name": "from",
          "type": "address"
        },
        {
          "internalType": "address",
          "name": "to",
          "type": "address"
        },
        {
          "internalType": "uint256",
          "name": "tokenId",
          "type": "uint256"
        }
      ],
      "name": "safeTransferFrom",
      "outputs": [],
      "stateMutability": "nonpayable",
      "type": "function"
    },
    {
      "inputs": [
        {
          "internalType": "address",
          "name": "from",
          "type": "address"
        },
        {
          "internalType": "address",
          "name": "to",
          "type": "address"
        },
        {
          "internalType": "uint256",
          "name": "tokenId",
          "type": "uint256"
        },
        {
          "internalType": "bytes",
          "name": "_data",
          "type": "bytes"
        }
      ],
      "name": "safeTransferFrom",
      "outputs": [],
      "stateMutability": "nonpayable",
      "type": "function"
    },
    {
      "inputs": [
        {
          "internalType": "address",
          "name": "operator",
          "type": "address"
        },
        {
          "internalType": "bool",
          "name": "approved",
          "type": "bool"
        }
      ],
      "name": "setApprovalForAll",
      "outputs": [],
      "stateMutability": "nonpayable",
      "type": "function"
    },
    {
      "inputs": [
        {
          "internalType": "bytes4",
          "name": "_interfaceId",
          "type": "bytes4"
        }
      ],
      "name": "supportsInterface",
      "outputs": [
        {
          "internalType": "bool",
          "name": "",
          "type": "bool"
        }
      ],
      "stateMutability": "view",
      "type": "function"
    },
    {
      "inputs": [],
      "name": "symbol",
      "outputs": [
        {
          "internalType": "string",
          "name": "",
          "type": "string"
        }
      ],
      "stateMutability": "view",
      "type": "function"
    },
    {
      "inputs": [
        {
          "internalType": "uint256",
          "name": "index",
          "type": "uint256"
        }
      ],
      "name": "tokenByIndex",
      "outputs": [
        {
          "internalType": "uint256",
          "name": "",
          "type": "uint256"
        }
      ],
      "stateMutability": "view",
      "type": "function"
    },
    {
      "inputs": [
        {
          "internalType": "address",
          "name": "owner",
          "type": "address"
        },
        {
          "internalType": "uint256",
          "name": "index",
          "type": "uint256"
        }
      ],
      "name": "tokenOfOwnerByIndex",
      "outputs": [
        {
          "internalType": "uint256",
          "name": "",
          "type": "uint256"
        }
      ],
      "stateMutability": "view",
      "type": "function"
    },
    {
      "inputs": [
        {
          "internalType": "uint256",
          "name": "_tokenId",
          "type": "uint256"
        }
      ],
      "name": "tokenURI",
      "outputs": [
        {
          "internalType": "string",
          "name": "",
          "type": "string"
        }
      ],
      "stateMutability": "view",
      "type": "function"
    },
    {
      "inputs": [],
      "name": "totalSupply",
      "outputs": [
        {
          "internalType": "uint256",
          "name": "",
          "type": "uint256"
        }
      ],
      "stateMutability": "view",
      "type": "function"
    },
    {
      "inputs": [
        {
          "internalType": "address",
          "name": "from",
          "type": "address"
        },
        {
          "internalType": "address",
          "name": "to",
          "type": "address"
        },
        {
          "internalType": "uint256",
          "name": "tokenId",
          "type": "uint256"
        }
      ],
      "name": "transferFrom",
      "outputs": [],
      "stateMutability": "nonpayable",
      "type": "function"
    }
  ],
  "bytecode": "0x60806040523480156200001157600080fd5b5060405162002571380380620025718339810160408190526200003491620002b2565b8151829082906200004d90600190602085019062000159565b5080516200006390600290602084019062000159565b506200007591506000905033620000a9565b620000a17f9f2df0fed2c77648de5860a4cc508cd0818c85b8b8a1ab4ceeef8d981c8956a633620000a9565b50506200036c565b620000b58282620000b9565b5050565b6000828152602081815260408083206001600160a01b038516845290915290205460ff16620000b5576000828152602081815260408083206001600160a01b03851684529091529020805460ff19166001179055620001153390565b6001600160a01b0316816001600160a01b0316837f2f8788117e7eff1d82e926ec794901d17c78024a50270940304540a733656f0d60405160405180910390a45050565b828054620001679062000319565b90600052602060002090601f0160209004810192826200018b5760008555620001d6565b82601f10620001a657805160ff1916838001178555620001d6565b82800160010185558215620001d6579182015b82811115620001d6578251825591602001919060010190620001b9565b50620001e4929150620001e8565b5090565b5b80821115620001e45760008155600101620001e9565b600082601f83011262000210578081fd5b81516001600160401b03808211156200022d576200022d62000356565b604051601f8301601f19908116603f0116810190828211818310171562000258576200025862000356565b8160405283815260209250868385880101111562000274578485fd5b8491505b8382101562000297578582018301518183018401529082019062000278565b83821115620002a857848385830101525b9695505050505050565b60008060408385031215620002c5578182fd5b82516001600160401b0380821115620002dc578384fd5b620002ea86838701620001ff565b9350602085015191508082111562000300578283fd5b506200030f85828601620001ff565b9150509250929050565b600181811c908216806200032e57607f821691505b602082108114156200035057634e487b7160e01b600052602260045260246000fd5b50919050565b634e487b7160e01b600052604160045260246000fd5b6121f5806200037c6000396000f3fe608060405234801561001057600080fd5b50600436106101ce5760003560e01c80636352211e11610104578063a22cb465116100a2578063d539139311610071578063d5391393146103ce578063d547741f146103f5578063e985e9c514610408578063f8b2cb4f1461044457600080fd5b8063a22cb46514610382578063b88d4fde14610395578063c87b56dd146103a8578063d0def521146103bb57600080fd5b806391d14854116100de57806391d148541461035057806395d89b41146103635780639d8e21771461036b578063a217fddf1461037a57600080fd5b80636352211e1461031757806364ba144e1461032a57806370a082311461033d57600080fd5b8063248a9ca3116101715780632f745c591161014b5780632f745c59146102cb57806336568abe146102de57806342842e0e146102f15780634f6ccce71461030457600080fd5b8063248a9ca31461028257806329f99b9f146102a55780632f2ff15d146102b857600080fd5b8063081812fc116101ad578063081812fc14610227578063095ea7b31461025257806318160ddd1461026757806323b872dd1461026f57600080fd5b80629a9b7b146101d357806301ffc9a7146101ef57806306fdde0314610212575b600080fd5b6101dc600b5481565b6040519081526020015b60405180910390f35b6102026101fd366004611e72565b610457565b60405190151581526020016101e6565b61021a610468565b6040516101e69190611f88565b61023a610235366004611e38565b6104fa565b6040516001600160a01b0390911681526020016101e6565b610265610260366004611d58565b610594565b005b6009546101dc565b61026561027d366004611c1e565b6106aa565b6101dc610290366004611e38565b60009081526020819052604090206001015490565b6101dc6102b3366004611d58565b6106e5565b6102656102c6366004611e50565b6106f8565b6101dc6102d9366004611d58565b61071e565b6102656102ec366004611e50565b6107b4565b6102656102ff366004611c1e565b610832565b6101dc610312366004611e38565b61084d565b61023a610325366004611e38565b6108ee565b610265610338366004611d81565b610965565b6101dc61034b366004611bd2565b610a8e565b61020261035e366004611e50565b610b15565b61021a610b3e565b6101dc670de0b6b3a764000081565b6101dc600081565b610265610390366004611cd2565b610b4d565b6102656103a3366004611c59565b610b58565b61021a6103b6366004611e38565b610b90565b6102656103c9366004611d0c565b610c32565b6101dc7f9f2df0fed2c77648de5860a4cc508cd0818c85b8b8a1ab4ceeef8d981c8956a681565b610265610403366004611e50565b610ce7565b610202610416366004611bec565b6001600160a01b03918216600090815260066020908152604080832093909416825291909152205460ff1690565b6101dc610452366004611bd2565b610d0d565b600061046282610d18565b92915050565b60606001805461047790612124565b80601f01602080910402602001604051908101604052809291908181526020018280546104a390612124565b80156104f05780601f106104c5576101008083540402835291602001916104f0565b820191906000526020600020905b8154815290600101906020018083116104d357829003601f168201915b5050505050905090565b6000818152600360205260408120546001600160a01b03166105785760405162461bcd60e51b815260206004820152602c60248201527f4552433732313a20617070726f76656420717565727920666f72206e6f6e657860448201526b34b9ba32b73a103a37b5b2b760a11b60648201526084015b60405180910390fd5b506000908152600560205260409020546001600160a01b031690565b600061059f826108ee565b9050806001600160a01b0316836001600160a01b0316141561060d5760405162461bcd60e51b815260206004820152602160248201527f4552433732313a20617070726f76616c20746f2063757272656e74206f776e656044820152603960f91b606482015260840161056f565b336001600160a01b038216148061062957506106298133610416565b61069b5760405162461bcd60e51b815260206004820152603860248201527f4552433732313a20617070726f76652063616c6c6572206973206e6f74206f7760448201527f6e6572206e6f7220617070726f76656420666f7220616c6c0000000000000000606482015260840161056f565b6106a58383610d3d565b505050565b6106b43382610dab565b6106d05760405162461bcd60e51b815260040161056f90611fed565b6106db838383610ea2565b6106a53382610d3d565b60006106f1838361071e565b9392505050565b6000828152602081905260409020600101546107148133611049565b6106a583836110ad565b600061072983610a8e565b821061078b5760405162461bcd60e51b815260206004820152602b60248201527f455243373231456e756d657261626c653a206f776e657220696e646578206f7560448201526a74206f6620626f756e647360a81b606482015260840161056f565b506001600160a01b03919091166000908152600760209081526040808320938352929052205490565b6001600160a01b03811633146108245760405162461bcd60e51b815260206004820152602f60248201527f416363657373436f6e74726f6c3a2063616e206f6e6c792072656e6f756e636560448201526e103937b632b9903337b91039b2b63360891b606482015260840161056f565b61082e8282611131565b5050565b6106a583838360405180602001604052806000815250610b58565b600061085860095490565b82106108bb5760405162461bcd60e51b815260206004820152602c60248201527f455243373231456e756d657261626c653a20676c6f62616c20696e646578206f60448201526b7574206f6620626f756e647360a01b606482015260840161056f565b600982815481106108dc57634e487b7160e01b600052603260045260246000fd5b90600052602060002001549050919050565b6000818152600360205260408120546001600160a01b0316806104625760405162461bcd60e51b815260206004820152602960248201527f4552433732313a206f776e657220717565727920666f72206e6f6e657869737460448201526832b73a103a37b5b2b760b91b606482015260840161056f565b61098f7f9f2df0fed2c77648de5860a4cc508cd0818c85b8b8a1ab4ceeef8d981c8956a633610b15565b6109c95760405162461bcd60e51b815260206004820152600b60248201526a27b7363c9036b4b73a32b960a91b604482015260640161056f565b60005b82518110156106a557610a088382815181106109f857634e487b7160e01b600052603260045260246000fd5b6020026020010151600b54611196565b610a15335b600b54610d3d565b818181518110610a3557634e487b7160e01b600052603260045260246000fd5b6020026020010151600c6000600b5481526020019081526020016000209080519060200190610a65929190611a14565b50600b8054906000610a768361215f565b91905055508080610a869061215f565b9150506109cc565b60006001600160a01b038216610af95760405162461bcd60e51b815260206004820152602a60248201527f4552433732313a2062616c616e636520717565727920666f7220746865207a65604482015269726f206164647265737360b01b606482015260840161056f565b506001600160a01b031660009081526004602052604090205490565b6000918252602082815260408084206001600160a01b0393909316845291905290205460ff1690565b60606002805461047790612124565b61082e3383836111b0565b610b623383610dab565b610b7e5760405162461bcd60e51b815260040161056f90611fed565b610b8a8484848461127f565b50505050565b6000818152600c60205260409020805460609190610bad90612124565b80601f0160208091040260200160405190810160405280929190818152602001828054610bd990612124565b8015610c265780601f10610bfb57610100808354040283529160200191610c26565b820191906000526020600020905b815481529060010190602001808311610c0957829003601f168201915b50505050509050919050565b610c5c7f9f2df0fed2c77648de5860a4cc508cd0818c85b8b8a1ab4ceeef8d981c8956a633610b15565b610c965760405162461bcd60e51b815260206004820152600b60248201526a27b7363c9036b4b73a32b960a91b604482015260640161056f565b610ca282600b54611196565b610cab33610a0d565b600b546000908152600c602090815260409091208251610ccd92840190611a14565b50600b8054906000610cde8361215f565b91905055505050565b600082815260208190526040902060010154610d038133611049565b6106a58383611131565b600061046282610a8e565b60006001600160e01b0319821663780e9d6360e01b14806104625750610462826112b2565b600081815260056020526040902080546001600160a01b0319166001600160a01b0384169081179091558190610d72826108ee565b6001600160a01b03167f8c5be1e5ebec7d5bd14f71427d1e84f3dd0314c0f7b2291e5b200ac8c7c3b92560405160405180910390a45050565b6000818152600360205260408120546001600160a01b0316610e245760405162461bcd60e51b815260206004820152602c60248201527f4552433732313a206f70657261746f7220717565727920666f72206e6f6e657860448201526b34b9ba32b73a103a37b5b2b760a11b606482015260840161056f565b6000610e2f836108ee565b9050806001600160a01b0316846001600160a01b03161480610e6a5750836001600160a01b0316610e5f846104fa565b6001600160a01b0316145b80610e9a57506001600160a01b0380821660009081526006602090815260408083209388168352929052205460ff165b949350505050565b826001600160a01b0316610eb5826108ee565b6001600160a01b031614610f195760405162461bcd60e51b815260206004820152602560248201527f4552433732313a207472616e736665722066726f6d20696e636f72726563742060448201526437bbb732b960d91b606482015260840161056f565b6001600160a01b038216610f7b5760405162461bcd60e51b8152602060048201526024808201527f4552433732313a207472616e7366657220746f20746865207a65726f206164646044820152637265737360e01b606482015260840161056f565b610f868383836112f2565b610f91600082610d3d565b6001600160a01b0383166000908152600460205260408120805460019290610fba9084906120ca565b90915550506001600160a01b0382166000908152600460205260408120805460019290610fe8908490612093565b909155505060008181526003602052604080822080546001600160a01b0319166001600160a01b0386811691821790925591518493918716917fddf252ad1be2c89b69c2b068fc378daa952ba7f163c4a11628f55a4df523b3ef91a4505050565b6110538282610b15565b61082e5761106b816001600160a01b031660146112fd565b6110768360206112fd565b604051602001611087929190611ed6565b60408051601f198184030181529082905262461bcd60e51b825261056f91600401611f88565b6110b78282610b15565b61082e576000828152602081815260408083206001600160a01b03851684529091529020805460ff191660011790556110ed3390565b6001600160a01b0316816001600160a01b0316837f2f8788117e7eff1d82e926ec794901d17c78024a50270940304540a733656f0d60405160405180910390a45050565b61113b8282610b15565b1561082e576000828152602081815260408083206001600160a01b0385168085529252808320805460ff1916905551339285917ff6391f5c32d9c69d2a47ea670b442974b53935d1edc7fd64eb21e047a839171b9190a45050565b61082e8282604051806020016040528060008152506114df565b816001600160a01b0316836001600160a01b031614156112125760405162461bcd60e51b815260206004820152601960248201527f4552433732313a20617070726f766520746f2063616c6c657200000000000000604482015260640161056f565b6001600160a01b03838116600081815260066020908152604080832094871680845294825291829020805460ff191686151590811790915591519182527f17307eab39ab6107e8899845ad3d59bd9653f200f220920489ca2b5937696c31910160405180910390a3505050565b61128a848484610ea2565b61129684848484611512565b610b8a5760405162461bcd60e51b815260040161056f90611f9b565b60006001600160e01b031982166380ac58cd60e01b14806112e357506001600160e01b03198216635b5e139f60e01b145b8061046257506104628261161f565b6106a5838383611654565b6060600061130c8360026120ab565b611317906002612093565b67ffffffffffffffff81111561133d57634e487b7160e01b600052604160045260246000fd5b6040519080825280601f01601f191660200182016040528015611367576020820181803683370190505b509050600360fc1b8160008151811061139057634e487b7160e01b600052603260045260246000fd5b60200101906001600160f81b031916908160001a905350600f60fb1b816001815181106113cd57634e487b7160e01b600052603260045260246000fd5b60200101906001600160f81b031916908160001a90535060006113f18460026120ab565b6113fc906001612093565b90505b6001811115611490576f181899199a1a9b1b9c1cb0b131b232b360811b85600f166010811061143e57634e487b7160e01b600052603260045260246000fd5b1a60f81b82828151811061146257634e487b7160e01b600052603260045260246000fd5b60200101906001600160f81b031916908160001a90535060049490941c936114898161210d565b90506113ff565b5083156106f15760405162461bcd60e51b815260206004820181905260248201527f537472696e67733a20686578206c656e67746820696e73756666696369656e74604482015260640161056f565b6114e9838361170c565b6114f66000848484611512565b6106a55760405162461bcd60e51b815260040161056f90611f9b565b60006001600160a01b0384163b1561161457604051630a85bd0160e11b81526001600160a01b0385169063150b7a0290611556903390899088908890600401611f4b565b602060405180830381600087803b15801561157057600080fd5b505af19250505080156115a0575060408051601f3d908101601f1916820190925261159d91810190611e8e565b60015b6115fa573d8080156115ce576040519150601f19603f3d011682016040523d82523d6000602084013e6115d3565b606091505b5080516115f25760405162461bcd60e51b815260040161056f90611f9b565b805181602001fd5b6001600160e01b031916630a85bd0160e11b149050610e9a565b506001949350505050565b60006001600160e01b03198216637965db0b60e01b148061046257506301ffc9a760e01b6001600160e01b0319831614610462565b6001600160a01b0383166116af576116aa81600980546000838152600a60205260408120829055600182018355919091527f6e1540171b6c0c960b71a7020d9f60077f6af931a8bbf590da0223dacf75c7af0155565b6116d2565b816001600160a01b0316836001600160a01b0316146116d2576116d2838261185a565b6001600160a01b0382166116e9576106a5816118f7565b826001600160a01b0316826001600160a01b0316146106a5576106a582826119d0565b6001600160a01b0382166117625760405162461bcd60e51b815260206004820181905260248201527f4552433732313a206d696e7420746f20746865207a65726f2061646472657373604482015260640161056f565b6000818152600360205260409020546001600160a01b0316156117c75760405162461bcd60e51b815260206004820152601c60248201527f4552433732313a20746f6b656e20616c7265616479206d696e74656400000000604482015260640161056f565b6117d3600083836112f2565b6001600160a01b03821660009081526004602052604081208054600192906117fc908490612093565b909155505060008181526003602052604080822080546001600160a01b0319166001600160a01b03861690811790915590518392907fddf252ad1be2c89b69c2b068fc378daa952ba7f163c4a11628f55a4df523b3ef908290a45050565b6000600161186784610a8e565b61187191906120ca565b6000838152600860205260409020549091508082146118c4576001600160a01b03841660009081526007602090815260408083208584528252808320548484528184208190558352600890915290208190555b5060009182526008602090815260408084208490556001600160a01b039094168352600781528383209183525290812055565b600954600090611909906001906120ca565b6000838152600a60205260408120546009805493945090928490811061193f57634e487b7160e01b600052603260045260246000fd5b90600052602060002001549050806009838154811061196e57634e487b7160e01b600052603260045260246000fd5b6000918252602080832090910192909255828152600a909152604080822084905585825281205560098054806119b457634e487b7160e01b600052603160045260246000fd5b6001900381819060005260206000200160009055905550505050565b60006119db83610a8e565b6001600160a01b039093166000908152600760209081526040808320868452825280832085905593825260089052919091209190915550565b828054611a2090612124565b90600052602060002090601f016020900481019282611a425760008555611a88565b82601f10611a5b57805160ff1916838001178555611a88565b82800160010185558215611a88579182015b82811115611a88578251825591602001919060010190611a6d565b50611a94929150611a98565b5090565b5b80821115611a945760008155600101611a99565b600067ffffffffffffffff831115611ac757611ac7612190565b611ada601f8401601f191660200161203e565b9050828152838383011115611aee57600080fd5b828260208301376000602084830101529392505050565b80356001600160a01b0381168114611b1c57600080fd5b919050565b600082601f830112611b31578081fd5b81356020611b46611b418361206f565b61203e565b80838252828201915082860187848660051b8901011115611b65578586fd5b855b85811015611ba657813567ffffffffffffffff811115611b85578788fd5b611b938a87838c0101611bb3565b8552509284019290840190600101611b67565b5090979650505050505050565b600082601f830112611bc3578081fd5b6106f183833560208501611aad565b600060208284031215611be3578081fd5b6106f182611b05565b60008060408385031215611bfe578081fd5b611c0783611b05565b9150611c1560208401611b05565b90509250929050565b600080600060608486031215611c32578081fd5b611c3b84611b05565b9250611c4960208501611b05565b9150604084013590509250925092565b60008060008060808587031215611c6e578081fd5b611c7785611b05565b9350611c8560208601611b05565b925060408501359150606085013567ffffffffffffffff811115611ca7578182fd5b8501601f81018713611cb7578182fd5b611cc687823560208401611aad565b91505092959194509250565b60008060408385031215611ce4578182fd5b611ced83611b05565b915060208301358015158114611d01578182fd5b809150509250929050565b60008060408385031215611d1e578182fd5b611d2783611b05565b9150602083013567ffffffffffffffff811115611d42578182fd5b611d4e85828601611bb3565b9150509250929050565b60008060408385031215611d6a578182fd5b611d7383611b05565b946020939093013593505050565b60008060408385031215611d93578182fd5b823567ffffffffffffffff80821115611daa578384fd5b818501915085601f830112611dbd578384fd5b81356020611dcd611b418361206f565b8083825282820191508286018a848660051b8901011115611dec578889fd5b8896505b84871015611e1557611e0181611b05565b835260019690960195918301918301611df0565b5096505086013592505080821115611e2b578283fd5b50611d4e85828601611b21565b600060208284031215611e49578081fd5b5035919050565b60008060408385031215611e62578182fd5b82359150611c1560208401611b05565b600060208284031215611e83578081fd5b81356106f1816121a6565b600060208284031215611e9f578081fd5b81516106f1816121a6565b60008151808452611ec28160208601602086016120e1565b601f01601f19169290920160200192915050565b7f416363657373436f6e74726f6c3a206163636f756e7420000000000000000000815260008351611f0e8160178501602088016120e1565b7001034b99036b4b9b9b4b733903937b6329607d1b6017918401918201528351611f3f8160288401602088016120e1565b01602801949350505050565b6001600160a01b0385811682528416602082015260408101839052608060608201819052600090611f7e90830184611eaa565b9695505050505050565b6020815260006106f16020830184611eaa565b60208082526032908201527f4552433732313a207472616e7366657220746f206e6f6e20455243373231526560408201527131b2b4bb32b91034b6b83632b6b2b73a32b960711b606082015260800190565b60208082526031908201527f4552433732313a207472616e736665722063616c6c6572206973206e6f74206f6040820152701ddb995c881b9bdc88185c1c1c9bdd9959607a1b606082015260800190565b604051601f8201601f1916810167ffffffffffffffff8111828210171561206757612067612190565b604052919050565b600067ffffffffffffffff82111561208957612089612190565b5060051b60200190565b600082198211156120a6576120a661217a565b500190565b60008160001904831182151516156120c5576120c561217a565b500290565b6000828210156120dc576120dc61217a565b500390565b60005b838110156120fc5781810151838201526020016120e4565b83811115610b8a5750506000910152565b60008161211c5761211c61217a565b506000190190565b600181811c9082168061213857607f821691505b6020821081141561215957634e487b7160e01b600052602260045260246000fd5b50919050565b60006000198214156121735761217361217a565b5060010190565b634e487b7160e01b600052601160045260246000fd5b634e487b7160e01b600052604160045260246000fd5b6001600160e01b0319811681146121bc57600080fd5b5056fea2646970667358221220de94541e683ea998888913528958fe306ca6cdc4e1d8cdaba7d40ad2f7524c7e64736f6c63430008040033",
  "linkReferences": {},
  "deployedLinkReferences": {}
}