{
  "_format": "hh-sol-artifact-1",
  "contractName": "Loans",
  "sourceName": "contracts/Loans.sol",
  "abi": [
    {
      "anonymous": false,
      "inputs": [
        {
          "indexed": true,
          "internalType": "uint256",
          "name": "tokenId",
          "type": "uint256"
        }
      ],
      "name": "AdminEndLoan",
      "type": "event"
    },
    {
      "anonymous": false,
      "inputs": [
        {
          "indexed": true,
          "internalType": "address",
          "name": "from",
          "type": "address"
        },
        {
          "indexed": true,
          "internalType": "address",
          "name": "to",
          "type": "address"
        },
        {
          "indexed": true,
          "internalType": "uint256",
          "name": "tokenId",
          "type": "uint256"
        }
      ],
      "name": "LoanReturned",
      "type": "event"
    },
    {
      "anonymous": false,
      "inputs": [
        {
          "indexed": true,
          "internalType": "address",
          "name": "from",
          "type": "address"
        },
        {
          "indexed": true,
          "internalType": "address",
          "name": "to",
          "type": "address"
        },
        {
          "indexed": true,
          "internalType": "uint256",
          "name": "tokenId",
          "type": "uint256"
        }
      ],
      "name": "Loaned",
      "type": "event"
    },
    {
      "anonymous": false,
      "inputs": [
        {
          "indexed": true,
          "internalType": "uint256",
          "name": "tokenId",
          "type": "uint256"
        }
      ],
      "name": "OnLoan",
      "type": "event"
    },
    {
      "inputs": [
        {
          "internalType": "uint256",
          "name": "_tokenId",
          "type": "uint256"
        },
        {
          "internalType": "bool",
          "name": "_shouldReturnLoan",
          "type": "bool"
        }
      ],
      "name": "endLoan",
      "outputs": [],
      "stateMutability": "nonpayable",
      "type": "function"
    },
    {
      "inputs": [
        {
          "internalType": "address",
          "name": "nftMarketAddress",
          "type": "address"
        }
      ],
      "name": "initialize",
      "outputs": [],
      "stateMutability": "nonpayable",
      "type": "function"
    },
    {
      "inputs": [
        {
          "internalType": "uint256",
          "name": "_tokenId",
          "type": "uint256"
        }
      ],
      "name": "loan",
      "outputs": [],
      "stateMutability": "nonpayable",
      "type": "function"
    },
    {
      "inputs": [
        {
          "internalType": "uint256",
          "name": "_tokenId",
          "type": "uint256"
        },
        {
          "internalType": "uint256",
          "name": "_loanId",
          "type": "uint256"
        },
        {
          "internalType": "uint256",
          "name": "_price",
          "type": "uint256"
        },
        {
          "internalType": "uint256",
          "name": "_loanPeriod",
          "type": "uint256"
        },
        {
          "internalType": "string",
          "name": "_loanPeriodUnit",
          "type": "string"
        },
        {
          "internalType": "address[]",
          "name": "_feeAddresses",
          "type": "address[]"
        },
        {
          "internalType": "uint256[]",
          "name": "_feePercentages",
          "type": "uint256[]"
        }
      ],
      "name": "putForLoan",
      "outputs": [],
      "stateMutability": "nonpayable",
      "type": "function"
    },
    {
      "inputs": [
        {
          "internalType": "uint256",
          "name": "_tokenId",
          "type": "uint256"
        }
      ],
      "name": "returnLoanedToken",
      "outputs": [],
      "stateMutability": "nonpayable",
      "type": "function"
    }
  ],
  "bytecode": "0x608060405234801561001057600080fd5b50611cf1806100206000396000f3fe608060405234801561001057600080fd5b50600436106100575760003560e01c8063365a53061461005c5780636268a4e11461007157806364c4db2a1461008457806368f50e0d14610097578063c4d66de8146100aa575b600080fd5b61006f61006a3660046117b7565b6100bd565b005b61006f61007f3660046117cf565b61043f565b61006f6100923660046117fe565b6105f7565b61006f6100a53660046117b7565b610984565b61006f6100b83660046115fa565b610b30565b600260015414156101155760405162461bcd60e51b815260206004820152601f60248201527f5265656e7472616e637947756172643a207265656e7472616e742063616c6c0060448201526064015b60405180910390fd5b600260015560385460405163463d31d760e11b8152600481018390526000916001600160a01b031690638c7a63ae9060240160006040518083038186803b15801561015f57600080fd5b505afa158015610173573d6000803e3d6000fd5b505050506040513d6000823e601f3d908101601f1916820160405261019b9190810190611639565b90508060400151151560011515146101db5760405162461bcd60e51b815260206004820152600360248201526213919360ea1b604482015260640161010c565b6038546040516310771b5f60e01b8152600481018490526000916001600160a01b0316906310771b5f9060240160206040518083038186803b15801561022057600080fd5b505afa158015610234573d6000803e3d6000fd5b505050506040513d601f19601f82011682018060405250810190610258919061161d565b90506001600160a01b0381163314156102a35760405162461bcd60e51b815260206004820152600d60248201526c1858d8d95cdcc819195b9a5959609a1b604482015260640161010c565b6102bf8261018001516080015183610180015160400151610c13565b61018083018051606090810192909252513360a09091018190526034805460008781526035602052604080822083905560018084018555939091527f46bddb1178e94d7f2892ff5f366840eb658911794f2c3a44c450aa2c505186c190910187905592850152603854915163c92dae4f60e01b81526004810186905260248101919091526001600160a01b039091169063c92dae4f90604401600060405180830381600087803b15801561037257600080fd5b505af1158015610386573d6000803e3d6000fd5b5050606061012085018190526101008501525050603854604051637108204f60e11b81526001600160a01b039091169063e210409e906103cc9086908690600401611a04565b600060405180830381600087803b1580156103e657600080fd5b505af11580156103fa573d6000803e3d6000fd5b50506040518592503391506001600160a01b038416907fc9d1e37d63367ddb1e7af8bcc8e9f6bbe504db1b5953feceadf5c41eb1b996b490600090a450506001805550565b6033546001600160a01b031633146104865760405162461bcd60e51b815260206004820152600a60248201526927b7363c9037bbb732b960b11b604482015260640161010c565b60385460405163463d31d760e11b8152600481018490526000916001600160a01b031690638c7a63ae9060240160006040518083038186803b1580156104cb57600080fd5b505afa1580156104df573d6000803e3d6000fd5b505050506040513d6000823e601f3d908101601f191682016040526105079190810190611639565b90508060600151151560011515146105475760405162461bcd60e51b81526020600482015260036024820152621393d360ea1b604482015260640161010c565b6101808101514260609091015281156105635761056383610d6e565b603854604051637108204f60e11b81526001600160a01b039091169063e210409e906105959086908590600401611a04565b600060405180830381600087803b1580156105af57600080fd5b505af11580156105c3573d6000803e3d6000fd5b50506040518592507f60429f4f4c620fa6de50cf94ff6ae815fdbc4c9e68642302819d3e1b11c51ee19150600090a2505050565b60385460405163463d31d760e11b8152600481018990526000916001600160a01b031690638c7a63ae9060240160006040518083038186803b15801561063c57600080fd5b505afa158015610650573d6000803e3d6000fd5b505050506040513d6000823e601f3d908101601f191682016040526106789190810190611639565b6038546040516310771b5f60e01b8152600481018b90529192506000916001600160a01b03909116906310771b5f9060240160206040518083038186803b1580156106c257600080fd5b505afa1580156106d6573d6000803e3d6000fd5b505050506040513d601f19601f820116820180604052508101906106fa919061161d565b9050336001600160a01b038216146107445760405162461bcd60e51b815260206004820152600d60248201526c1858d8d95cdcc819195b9a5959609a1b604482015260640161010c565b8151156107795760405162461bcd60e51b815260206004820152600360248201526241465360e81b604482015260640161010c565b6040820151156107b15760405162461bcd60e51b815260206004820152600360248201526210519360ea1b604482015260640161010c565b600087116107ed5760405162461bcd60e51b815260206004820152600960248201526862616420707269636560b81b604482015260640161010c565b82518451146108325760405162461bcd60e51b81526020600482015260116024820152706261642066656573207365657469676e7360781b604482015260640161010c565b6040518060c001604052808981526020018881526020018781526020016000815260200161085f876110d1565b600481111561087e57634e487b7160e01b600052602160045260246000fd5b8152600060209182018190526101808501929092526101208401869052610100840185905260016040808601829052603480548e86526035909452818520849055918301825592527f46bddb1178e94d7f2892ff5f366840eb658911794f2c3a44c450aa2c505186c1018a90556038549051637108204f60e11b81526001600160a01b039091169063e210409e9061091c908c908690600401611a04565b600060405180830381600087803b15801561093657600080fd5b505af115801561094a573d6000803e3d6000fd5b50506040518b92507fc2105d16596d0a90e3a72b10901629b5a623f92361cb47a0789854913d8fa2d89150600090a2505050505050505050565b600260015414156109d75760405162461bcd60e51b815260206004820152601f60248201527f5265656e7472616e637947756172643a207265656e7472616e742063616c6c00604482015260640161010c565b600260015560385460405163463d31d760e11b8152600481018390526000916001600160a01b031690638c7a63ae9060240160006040518083038186803b158015610a2157600080fd5b505afa158015610a35573d6000803e3d6000fd5b505050506040513d6000823e601f3d908101601f19168201604052610a5d9190810190611639565b90508060600151610a965760405162461bcd60e51b81526020600482015260036024820152621393d360ea1b604482015260640161010c565b61018081015160a001516001600160a01b03163314610ae05760405162461bcd60e51b815260040161010c906020808252600490820152634e4c545960e01b604082015260600190565b42816101800151606001511115610b1f5760405162461bcd60e51b815260206004820152600360248201526214d3d360ea1b604482015260640161010c565b610b2882610d6e565b505060018055565b600054610100900460ff16610b4b5760005460ff1615610b4f565b303b155b610bb25760405162461bcd60e51b815260206004820152602e60248201527f496e697469616c697a61626c653a20636f6e747261637420697320616c72656160448201526d191e481a5b9a5d1a585b1a5e995960921b606482015260840161010c565b600054610100900460ff16158015610bd4576000805461ffff19166101011790555b60338054336001600160a01b031991821617909155603880549091166001600160a01b0384161790558015610c0f576000805461ff00191690555b5050565b600080836004811115610c3657634e487b7160e01b600052602160045260246000fd5b1415610c5857610c4782603c611c33565b610c519042611c1b565b9050610d68565b6001836004811115610c7a57634e487b7160e01b600052602160045260246000fd5b1415610c9657610c8b82603c611c33565b610c4790603c611c33565b6002836004811115610cb857634e487b7160e01b600052602160045260246000fd5b1415610cd457610cc9826018611c33565b610c8b90603c611c33565b6003836004811115610cf657634e487b7160e01b600052602160045260246000fd5b1415610d1257610d07826007611c33565b610cc9906018611c33565b6004836004811115610d3457634e487b7160e01b600052602160045260246000fd5b1415610d5057610d45826034611c33565b610d07906007611c33565b610d5b82603c611c33565b610d659042611c1b565b90505b92915050565b60385460405163463d31d760e11b8152600481018390526000916001600160a01b031690638c7a63ae9060240160006040518083038186803b158015610db357600080fd5b505afa158015610dc7573d6000803e3d6000fd5b505050506040513d6000823e601f3d908101601f19168201604052610def9190810190611639565b61018081015160a0015160e082015160008581526035602052604081205460348054959650939492939092610e2690600190611c52565b81548110610e4457634e487b7160e01b600052603260045260246000fd5b6000918252602080832090910154808352603590915260409091208390556034805491925090610e7690600190611c52565b81548110610e9457634e487b7160e01b600052603260045260246000fd5b906000526020600020015460348381548110610ec057634e487b7160e01b600052603260045260246000fd5b6000918252602090912001556034805480610eeb57634e487b7160e01b600052603160045260246000fd5b60008281526020808220830160001990810183905590920190925560408088018390526060808901849052898452603683528184206101808a0151815460018181018455928752958590208151600590970201958655938401518582015591830151600285015582015160038401556080820151600480850180549495949293909260ff1916918490811115610f9157634e487b7160e01b600052602160045260246000fd5b021790555060a0919091015160049182018054610100600160a81b0319166101006001600160a01b0393841602179055603854604051637108204f60e11b815291169163e210409e91610fe8918a918a9101611a04565b600060405180830381600087803b15801561100257600080fd5b505af1158015611016573d6000803e3d6000fd5b5050603854604051637aa9bf6f60e11b81526001600160a01b0388811660048301528781166024830152604482018b9052909116925063f5537ede9150606401600060405180830381600087803b15801561107057600080fd5b505af1158015611084573d6000803e3d6000fd5b5050505085836001600160a01b0316856001600160a01b03167f6bc15f6a04fe5ed4600fa4ff46729f772622c11381fc7b57f3e3454c04acb57d60405160405180910390a4505050505050565b600080826040516020016110e591906119cb565b60405160208183030381529060405280519060200120905060405160200161111a90666d696e7574657360c81b815260070190565b604051602081830303815290604052805190602001208114806111675750604051664d494e5554455360c81b60208201526027016040516020818303038152906040528051906020012081145b156111755750600092915050565b60405164686f75727360d81b6020820152602501604051602081830303815290604052805190602001208114806111d4575060405164484f55525360d81b60208201526025016040516020818303038152906040528051906020012081145b156111e25750600192915050565b604051636461797360e01b60208201526024016040516020818303038152906040528051906020012081148061123f5750604051634441595360e01b60208201526024016040516020818303038152906040528051906020012081145b1561124d5750600292915050565b604051647765656b7360d81b6020820152602501604051602081830303815290604052805190602001208114806112ac5750604051645745454b5360d81b60208201526025016040516020818303038152906040528051906020012081145b156112ba5750600392915050565b60405164796561727360d81b602082015260250160405160208183030381529060405280519060200120811480611319575060405164594541525360d81b60208201526025016040516020818303038152906040528051906020012081145b156113275750600492915050565b50600092915050565b805161133b81611c95565b919050565b600082601f830112611350578081fd5b8135602061136561136083611bf7565b611bc6565b80838252828201915082860187848660051b8901011115611384578586fd5b855b858110156113ab57813561139981611c95565b84529284019290840190600101611386565b5090979650505050505050565b600082601f8301126113c8578081fd5b815160206113d861136083611bf7565b80838252828201915082860187848660051b89010111156113f7578586fd5b855b858110156113ab57815161140c81611c95565b845292840192908401906001016113f9565b600082601f83011261142e578081fd5b8135602061143e61136083611bf7565b80838252828201915082860187848660051b890101111561145d578586fd5b855b858110156113ab5781358452928401929084019060010161145f565b600082601f83011261148b578081fd5b8151602061149b61136083611bf7565b80838252828201915082860187848660051b89010111156114ba578586fd5b855b858110156113ab578151845292840192908401906001016114bc565b805161133b81611cad565b600060e082840312156114f4578081fd5b60405160e0810181811067ffffffffffffffff8211171561151757611517611c7f565b8060405250809150825181526020830151602082015260408301516040820152606083015160608201526080830151608082015260a083015160a082015261156160c08401611330565b60c08201525092915050565b600060c0828403121561157e578081fd5b60405160c0810181811067ffffffffffffffff821117156115a1576115a1611c7f565b8060405250809150825181526020830151602082015260408301516040820152606083015160608201526080830151600581106115dd57600080fd5b60808201526115ee60a08401611330565b60a08201525092915050565b60006020828403121561160b578081fd5b813561161681611c95565b9392505050565b60006020828403121561162e578081fd5b815161161681611c95565b60006020828403121561164a578081fd5b815167ffffffffffffffff80821115611661578283fd5b908301906103208286031215611675578283fd5b61167d611b9c565b611686836114d8565b8152611694602084016114d8565b60208201526116a5604084016114d8565b60408201526116b6606084016114d8565b60608201526080830151608082015260a083015160a08201526116db60c08401611330565b60c08201526116ec60e08401611330565b60e08201526101008084015183811115611704578586fd5b6117108882870161147b565b8284015250506101208084015183811115611729578586fd5b611735888287016113b8565b828401525050610140808401518381111561174e578586fd5b61175a8882870161147b565b8284015250506101608084015183811115611773578586fd5b61177f888287016113b8565b82840152505061018091506117968683850161156d565b828201526117a88661024085016114e3565b6101a082015295945050505050565b6000602082840312156117c8578081fd5b5035919050565b600080604083850312156117e1578081fd5b8235915060208301356117f381611cad565b809150509250929050565b600080600080600080600060e0888a031215611818578283fd5b8735965060208089013596506040890135955060608901359450608089013567ffffffffffffffff8082111561184c578586fd5b818b0191508b601f83011261185f578586fd5b81358181111561187157611871611c7f565b611883601f8201601f19168501611bc6565b8181528d85838601011115611896578788fd5b818585018683013787858383010152809750505060a08b01359250808311156118bd578485fd5b6118c98c848d01611340565b945060c08b01359250808311156118de578384fd5b50506118ec8a828b0161141e565b91505092959891949750929550565b6000815180845260208085019450808401835b838110156119335781516001600160a01b03168752958201959082019060010161190e565b509495945050505050565b6000815180845260208085019450808401835b8381101561193357815187529582019590820190600101611951565b805182526020810151602083015260408101516040830152606081015160608301526080810151600581106119b257634e487b7160e01b600052602160045260246000fd5b608083015260a0908101516001600160a01b0316910152565b60008251815b818110156119eb57602081860181015185830152016119d1565b818111156119f95782828501525b509190910192915050565b82815260406020820152611a1d60408201835115159052565b60006020830151611a32606084018215159052565b506040830151801515608084015250606083015180151560a084015250608083015160c083015260a083015160e083015260c0830151610100611a7f818501836001600160a01b03169052565b60e08501519150610120611a9d818601846001600160a01b03169052565b818601519250610140915061032082860152611abd61036086018461193e565b9250808601519050603f19610160818786030181880152611ade85846118fb565b94508388015193506101809250818786030183880152611afe858561193e565b9450808801519350506101a0818786030181880152611b1d85856118fb565b9450828801519350611b336101c088018561196d565b870151805161028088015260208101516102a088015260408101516102c088015260608101516102e0880152608081015161030088015260a081015161032088015260c08101516001600160a01b03166103408801529250611b93915050565b50949350505050565b6040516101c0810167ffffffffffffffff81118282101715611bc057611bc0611c7f565b60405290565b604051601f8201601f1916810167ffffffffffffffff81118282101715611bef57611bef611c7f565b604052919050565b600067ffffffffffffffff821115611c1157611c11611c7f565b5060051b60200190565b60008219821115611c2e57611c2e611c69565b500190565b6000816000190483118215151615611c4d57611c4d611c69565b500290565b600082821015611c6457611c64611c69565b500390565b634e487b7160e01b600052601160045260246000fd5b634e487b7160e01b600052604160045260246000fd5b6001600160a01b0381168114611caa57600080fd5b50565b8015158114611caa57600080fdfea2646970667358221220c78b0d1e68ef78097658a3ccecc6fcb1d66251223a71f88288392c647464bb0b64736f6c63430008040033",
  "linkReferences": {},
  "deployedLinkReferences": {}
}