{
  "_format": "hh-sol-artifact-1",
  "contractName": "NFTMarket",
  "sourceName": "contracts/NFTMarket.sol",
  "abi": [
    {
      "anonymous": false,
      "inputs": [
        {
          "indexed": true,
          "internalType": "address",
          "name": "to",
          "type": "address"
        },
        {
          "indexed": true,
          "internalType": "uint256[]",
          "name": "tokenId",
          "type": "uint256[]"
        }
      ],
      "name": "BatchMinted",
      "type": "event"
    },
    {
      "anonymous": false,
      "inputs": [
        {
          "indexed": true,
          "internalType": "address",
          "name": "to",
          "type": "address"
        },
        {
          "indexed": true,
          "internalType": "uint256",
          "name": "tokenId",
          "type": "uint256"
        }
      ],
      "name": "Minted",
      "type": "event"
    },
    {
      "anonymous": false,
      "inputs": [
        {
          "indexed": true,
          "internalType": "address",
          "name": "from",
          "type": "address"
        },
        {
          "indexed": true,
          "internalType": "uint256",
          "name": "tokenId",
          "type": "uint256"
        }
      ],
      "name": "Sale",
      "type": "event"
    },
    {
      "anonymous": false,
      "inputs": [
        {
          "indexed": true,
          "internalType": "address",
          "name": "from",
          "type": "address"
        },
        {
          "indexed": true,
          "internalType": "address",
          "name": "to",
          "type": "address"
        },
        {
          "indexed": true,
          "internalType": "uint256",
          "name": "tokenId",
          "type": "uint256"
        }
      ],
      "name": "Sold",
      "type": "event"
    },
    {
      "inputs": [
        {
          "internalType": "uint256",
          "name": "_tokenId",
          "type": "uint256"
        },
        {
          "internalType": "address",
          "name": "_caller",
          "type": "address"
        }
      ],
      "name": "bid",
      "outputs": [],
      "stateMutability": "nonpayable",
      "type": "function"
    },
    {
      "inputs": [
        {
          "internalType": "uint256",
          "name": "_tokenId",
          "type": "uint256"
        }
      ],
      "name": "buy",
      "outputs": [],
      "stateMutability": "nonpayable",
      "type": "function"
    },
    {
      "inputs": [
        {
          "internalType": "uint256",
          "name": "_tokenId",
          "type": "uint256"
        }
      ],
      "name": "claim",
      "outputs": [],
      "stateMutability": "nonpayable",
      "type": "function"
    },
    {
      "inputs": [],
      "name": "currentTokenId",
      "outputs": [
        {
          "internalType": "uint256",
          "name": "",
          "type": "uint256"
        }
      ],
      "stateMutability": "view",
      "type": "function"
    },
    {
      "inputs": [
        {
          "internalType": "uint256",
          "name": "_tokenId",
          "type": "uint256"
        }
      ],
      "name": "getBlockchainOwner",
      "outputs": [
        {
          "internalType": "address",
          "name": "",
          "type": "address"
        }
      ],
      "stateMutability": "view",
      "type": "function"
    },
    {
      "inputs": [],
      "name": "getLegalTender",
      "outputs": [
        {
          "internalType": "address",
          "name": "",
          "type": "address"
        }
      ],
      "stateMutability": "view",
      "type": "function"
    },
    {
      "inputs": [],
      "name": "getRoyaltyPercentage",
      "outputs": [
        {
          "internalType": "uint256",
          "name": "",
          "type": "uint256"
        }
      ],
      "stateMutability": "view",
      "type": "function"
    },
    {
      "inputs": [
        {
          "internalType": "uint256",
          "name": "_tokenId",
          "type": "uint256"
        }
      ],
      "name": "getTokenInfo",
      "outputs": [
        {
          "components": [
            {
              "internalType": "bool",
              "name": "forSale",
              "type": "bool"
            },
            {
              "internalType": "bool",
              "name": "forAuction",
              "type": "bool"
            },
            {
              "internalType": "bool",
              "name": "forLoan",
              "type": "bool"
            },
            {
              "internalType": "bool",
              "name": "onLoan",
              "type": "bool"
            },
            {
              "internalType": "uint256",
              "name": "tokenId",
              "type": "uint256"
            },
            {
              "internalType": "uint256",
              "name": "price",
              "type": "uint256"
            },
            {
              "internalType": "address",
              "name": "minter",
              "type": "address"
            },
            {
              "internalType": "address",
              "name": "owner",
              "type": "address"
            },
            {
              "internalType": "uint256[]",
              "name": "feePercentages",
              "type": "uint256[]"
            },
            {
              "internalType": "address[]",
              "name": "feeAddresses",
              "type": "address[]"
            },
            {
              "internalType": "uint256[]",
              "name": "royaltyPercentages",
              "type": "uint256[]"
            },
            {
              "internalType": "address[]",
              "name": "royaltyAddresses",
              "type": "address[]"
            },
            {
              "components": [
                {
                  "internalType": "uint256",
                  "name": "loanId",
                  "type": "uint256"
                },
                {
                  "internalType": "uint256",
                  "name": "loanPrice",
                  "type": "uint256"
                },
                {
                  "internalType": "uint256",
                  "name": "loanPeriod",
                  "type": "uint256"
                },
                {
                  "internalType": "uint256",
                  "name": "loanEndTime",
                  "type": "uint256"
                },
                {
                  "internalType": "enum PeriodUnits",
                  "name": "loanPeriodUnit",
                  "type": "uint8"
                },
                {
                  "internalType": "address",
                  "name": "loanedTo",
                  "type": "address"
                }
              ],
              "internalType": "struct Loan",
              "name": "currentLoan",
              "type": "tuple"
            },
            {
              "components": [
                {
                  "internalType": "uint256",
                  "name": "tokenId",
                  "type": "uint256"
                },
                {
                  "internalType": "uint256",
                  "name": "auctionId",
                  "type": "uint256"
                },
                {
                  "internalType": "uint256",
                  "name": "startPrice",
                  "type": "uint256"
                },
                {
                  "internalType": "uint256",
                  "name": "highestBid",
                  "type": "uint256"
                },
                {
                  "internalType": "uint256",
                  "name": "startTime",
                  "type": "uint256"
                },
                {
                  "internalType": "uint256",
                  "name": "endTime",
                  "type": "uint256"
                },
                {
                  "internalType": "address",
                  "name": "highestBidder",
                  "type": "address"
                }
              ],
              "internalType": "struct Auction",
              "name": "currentAuction",
              "type": "tuple"
            }
          ],
          "internalType": "struct TokenInfo",
          "name": "",
          "type": "tuple"
        }
      ],
      "stateMutability": "view",
      "type": "function"
    },
    {
      "inputs": [
        {
          "internalType": "address",
          "name": "_nft",
          "type": "address"
        },
        {
          "internalType": "address",
          "name": "_legalTender",
          "type": "address"
        }
      ],
      "name": "initialize",
      "outputs": [],
      "stateMutability": "nonpayable",
      "type": "function"
    },
    {
      "inputs": [
        {
          "internalType": "uint256",
          "name": "_tokenId",
          "type": "uint256"
        },
        {
          "internalType": "address",
          "name": "_caller",
          "type": "address"
        }
      ],
      "name": "loan",
      "outputs": [],
      "stateMutability": "nonpayable",
      "type": "function"
    },
    {
      "inputs": [
        {
          "internalType": "string",
          "name": "_uri",
          "type": "string"
        },
        {
          "internalType": "uint256",
          "name": "_price",
          "type": "uint256"
        },
        {
          "internalType": "address[]",
          "name": "_feeAddresses",
          "type": "address[]"
        },
        {
          "internalType": "uint256[]",
          "name": "_feePercentages",
          "type": "uint256[]"
        },
        {
          "internalType": "address[]",
          "name": "_royaltyAddresses",
          "type": "address[]"
        },
        {
          "internalType": "uint256[]",
          "name": "_royaltyPercentages",
          "type": "uint256[]"
        }
      ],
      "name": "mint",
      "outputs": [],
      "stateMutability": "nonpayable",
      "type": "function"
    },
    {
      "inputs": [
        {
          "internalType": "uint256",
          "name": "_tokenId",
          "type": "uint256"
        },
        {
          "internalType": "uint256",
          "name": "_amount",
          "type": "uint256"
        },
        {
          "internalType": "address[]",
          "name": "_feeAddresses",
          "type": "address[]"
        },
        {
          "internalType": "uint256[]",
          "name": "_feePercentages",
          "type": "uint256[]"
        }
      ],
      "name": "sell",
      "outputs": [],
      "stateMutability": "nonpayable",
      "type": "function"
    },
    {
      "inputs": [
        {
          "internalType": "address",
          "name": "_auctionAddress",
          "type": "address"
        }
      ],
      "name": "setAuction",
      "outputs": [],
      "stateMutability": "nonpayable",
      "type": "function"
    },
    {
      "inputs": [
        {
          "internalType": "address",
          "name": "_loanAddress",
          "type": "address"
        }
      ],
      "name": "setLoan",
      "outputs": [],
      "stateMutability": "nonpayable",
      "type": "function"
    },
    {
      "inputs": [
        {
          "internalType": "uint256",
          "name": "_tokenId",
          "type": "uint256"
        },
        {
          "components": [
            {
              "internalType": "bool",
              "name": "forSale",
              "type": "bool"
            },
            {
              "internalType": "bool",
              "name": "forAuction",
              "type": "bool"
            },
            {
              "internalType": "bool",
              "name": "forLoan",
              "type": "bool"
            },
            {
              "internalType": "bool",
              "name": "onLoan",
              "type": "bool"
            },
            {
              "internalType": "uint256",
              "name": "tokenId",
              "type": "uint256"
            },
            {
              "internalType": "uint256",
              "name": "price",
              "type": "uint256"
            },
            {
              "internalType": "address",
              "name": "minter",
              "type": "address"
            },
            {
              "internalType": "address",
              "name": "owner",
              "type": "address"
            },
            {
              "internalType": "uint256[]",
              "name": "feePercentages",
              "type": "uint256[]"
            },
            {
              "internalType": "address[]",
              "name": "feeAddresses",
              "type": "address[]"
            },
            {
              "internalType": "uint256[]",
              "name": "royaltyPercentages",
              "type": "uint256[]"
            },
            {
              "internalType": "address[]",
              "name": "royaltyAddresses",
              "type": "address[]"
            },
            {
              "components": [
                {
                  "internalType": "uint256",
                  "name": "loanId",
                  "type": "uint256"
                },
                {
                  "internalType": "uint256",
                  "name": "loanPrice",
                  "type": "uint256"
                },
                {
                  "internalType": "uint256",
                  "name": "loanPeriod",
                  "type": "uint256"
                },
                {
                  "internalType": "uint256",
                  "name": "loanEndTime",
                  "type": "uint256"
                },
                {
                  "internalType": "enum PeriodUnits",
                  "name": "loanPeriodUnit",
                  "type": "uint8"
                },
                {
                  "internalType": "address",
                  "name": "loanedTo",
                  "type": "address"
                }
              ],
              "internalType": "struct Loan",
              "name": "currentLoan",
              "type": "tuple"
            },
            {
              "components": [
                {
                  "internalType": "uint256",
                  "name": "tokenId",
                  "type": "uint256"
                },
                {
                  "internalType": "uint256",
                  "name": "auctionId",
                  "type": "uint256"
                },
                {
                  "internalType": "uint256",
                  "name": "startPrice",
                  "type": "uint256"
                },
                {
                  "internalType": "uint256",
                  "name": "highestBid",
                  "type": "uint256"
                },
                {
                  "internalType": "uint256",
                  "name": "startTime",
                  "type": "uint256"
                },
                {
                  "internalType": "uint256",
                  "name": "endTime",
                  "type": "uint256"
                },
                {
                  "internalType": "address",
                  "name": "highestBidder",
                  "type": "address"
                }
              ],
              "internalType": "struct Auction",
              "name": "currentAuction",
              "type": "tuple"
            }
          ],
          "internalType": "struct TokenInfo",
          "name": "_tokenInfo",
          "type": "tuple"
        }
      ],
      "name": "setTokenInfo",
      "outputs": [],
      "stateMutability": "nonpayable",
      "type": "function"
    },
    {
      "inputs": [
        {
          "internalType": "address",
          "name": "_from",
          "type": "address"
        },
        {
          "internalType": "address",
          "name": "_to",
          "type": "address"
        },
        {
          "internalType": "uint256",
          "name": "_tokenId",
          "type": "uint256"
        }
      ],
      "name": "transferToken",
      "outputs": [],
      "stateMutability": "nonpayable",
      "type": "function"
    }
  ],
  "bytecode": "0x608060405234801561001057600080fd5b50614171806100206000396000f3fe608060405234801561001057600080fd5b50600436106100ff5760003560e01c80638c7a63ae11610097578063c92dae4f11610066578063c92dae4f1461020a578063d96a094a1461021d578063e210409e14610230578063f5537ede1461024357600080fd5b80638c7a63ae146101b3578063978dba67146101d35780639f04996d146101e4578063b8c6f579146101f757600080fd5b806341f7b092116100d357806341f7b09214610172578063485cc9551461018557806349ebde0b1461019857806359c8b7dd146101ab57600080fd5b80629a9b7b1461010457806310771b5f1461011f578063379607f51461014a5780633cac2d761461015f575b600080fd5b61010c610256565b6040519081526020015b60405180910390f35b61013261012d366004613a69565b6102d6565b6040516001600160a01b039091168152602001610116565b61015d610158366004613a69565b610359565b005b61015d61016d366004613c47565b610872565b61015d6101803660046138c2565b610fa8565b61015d610193366004613901565b610ff4565b61015d6101a6366004613995565b6110fa565b60395461010c565b6101c66101c1366004613a69565b6111e1565b6040516101169190613e72565b603c546001600160a01b0316610132565b61015d6101f2366004613a99565b6114e8565b61015d6102053660046138c2565b611a25565b61015d610218366004613a99565b611a71565b61015d61022b366004613a69565b612137565b61015d61023e366004613abd565b612d73565b61015d610251366004613939565b612fcd565b603b5460408051629a9b7b60e01b815290516000926001600160a01b031691629a9b7b916004808301926020929190829003018186803b15801561029957600080fd5b505afa1580156102ad573d6000803e3d6000fd5b505050506040513d601f19601f820116820180604052508101906102d19190613a81565b905090565b603b546040516331a9108f60e11b8152600481018390526000916001600160a01b031690636352211e9060240160206040518083038186803b15801561031b57600080fd5b505afa15801561032f573d6000803e3d6000fd5b505050506040513d601f19601f8201168201806040525081019061035391906138e5565b92915050565b6035546001600160a01b0316331461038c5760405162461bcd60e51b815260040161038390613e2f565b60405180910390fd5b600081815260386020908152604080832081516101c081018352815460ff80821615158352610100808304821615158488015262010000830482161515848701526301000000909204161515606083015260018301546080830152600283015460a083015260038301546001600160a01b0390811660c084015260048401541660e083015260058301805485518188028101880190965280865292959394918601939192909183018282801561046157602002820191906000526020600020905b81548152602001906001019080831161044d575b50505050508152602001600682018054806020026020016040519081016040528092919081815260200182805480156104c357602002820191906000526020600020905b81546001600160a01b031681526001909101906020018083116104a5575b505050505081526020016007820180548060200260200160405190810160405280929190818152602001828054801561051b57602002820191906000526020600020905b815481526020019060010190808311610507575b505050505081526020016008820180548060200260200160405190810160405280929190818152602001828054801561057d57602002820191906000526020600020905b81546001600160a01b0316815260019091019060200180831161055f575b50505050508152602001600982016040518060c0016040529081600082015481526020016001820154815260200160028201548152602001600382015481526020016004820160009054906101000a900460ff1660048111156105f057634e487b7160e01b600052602160045260246000fd5b600481111561060f57634e487b7160e01b600052602160045260246000fd5b8152600491909101546001600160a01b0361010090910481166020928301529183526040805160e081018252600e8601548152600f86015481840152601086015491810191909152601185015460608083019190915260128601546080830152601386015460a083015260149095015490921660c0808401919091529201526101a0830151908101519101519192509060006106aa856102d6565b603b546040516323b872dd60e01b81529192506001600160a01b0316906323b872dd906106df90849087908a90600401613d8b565b600060405180830381600087803b1580156106f957600080fd5b505af115801561070d573d6000803e3d6000fd5b5050505060005b8461012001515181101561086a5760006064866101000151838151811061074b57634e487b7160e01b600052603260045260246000fd5b60200260200101518561075e9190614098565b6107689190614078565b603c5461012088015180519293506000926001600160a01b039092169163a9059cbb9190869081106107aa57634e487b7160e01b600052603260045260246000fd5b6020026020010151846040518363ffffffff1660e01b81526004016107e49291906001600160a01b03929092168252602082015260400190565b602060405180830381600087803b1580156107fe57600080fd5b505af1158015610812573d6000803e3d6000fd5b505050506040513d601f19601f820116820180604052508101906108369190613979565b9050806108555760405162461bcd60e51b815260040161038390613e12565b50508080610862906140ce565b915050610714565b505050505050565b600084815260386020908152604080832081516101c081018352815460ff80821615158352610100808304821615158488015262010000830482161515848701526301000000909204161515606083015260018301546080830152600283015460a083015260038301546001600160a01b0390811660c084015260048401541660e083015260058301805485518188028101880190965280865292959394918601939192909183018282801561094757602002820191906000526020600020905b815481526020019060010190808311610933575b50505050508152602001600682018054806020026020016040519081016040528092919081815260200182805480156109a957602002820191906000526020600020905b81546001600160a01b0316815260019091019060200180831161098b575b5050505050815260200160078201805480602002602001604051908101604052809291908181526020018280548015610a0157602002820191906000526020600020905b8154815260200190600101908083116109ed575b5050505050815260200160088201805480602002602001604051908101604052809291908181526020018280548015610a6357602002820191906000526020600020905b81546001600160a01b03168152600190910190602001808311610a45575b50505050508152602001600982016040518060c0016040529081600082015481526020016001820154815260200160028201548152602001600382015481526020016004820160009054906101000a900460ff166004811115610ad657634e487b7160e01b600052602160045260246000fd5b6004811115610af557634e487b7160e01b600052602160045260246000fd5b8152600491909101546001600160a01b0361010090910481166020928301529183526040805160e081018252600e8601548152600f860154818401526010860154918101919091526011850154606082015260128501546080820152601385015460a082015260149094015490911660c08401520152805190915015610ba35760405162461bcd60e51b815260206004820152600360248201526241465360e81b6044820152606401610383565b604081015115610bda5760405162461bcd60e51b8152602060048201526002602482015261119360f21b6044820152606401610383565b60008411610c175760405162461bcd60e51b815260206004820152600a60248201526918985908185b5bdd5b9d60b21b6044820152606401610383565b603b546040516331a9108f60e11b8152600481018790526000916001600160a01b031690636352211e9060240160206040518083038186803b158015610c5c57600080fd5b505afa158015610c70573d6000803e3d6000fd5b505050506040513d601f19601f82011682018060405250810190610c9491906138e5565b9050336001600160a01b03821614610cbe5760405162461bcd60e51b815260040161038390613e2f565b8251845114610d035760405162461bcd60e51b81526020600482015260116024820152706261642066656573207365657469676e7360781b6044820152606401610383565b60a08201858152610120830185905261010080840185815260018086526036805460008c81526037602090815260408083208490558386019094557f4a11f94e20a93c79f6ec743a1954ec4fc2c08429ae2122118bf234b2185c81b89092018d90556038825282902088518154838b0151948b015160608c0151151563010000000263ff0000001991151562010000029190911663ffff00001996151590990261ff00199315159390931661ffff19909216919091179190911793909316959095179190911784556080870151918401919091559251600283015560c08501516003830180546001600160a01b039283166001600160a01b03199182161790915560e08701516004850180549190931691161790555180518593610e2e92600585019291019061346c565b506101208201518051610e4b9160068401916020909101906134b7565b506101408201518051610e6891600784019160209091019061346c565b506101608201518051610e859160088401916020909101906134b7565b506101808201518051600983019081556020820151600a8401556040820151600b8401556060820151600c8401556080820151600d8401805460ff19166001836004811115610ee457634e487b7160e01b600052602160045260246000fd5b021790555060a0918201516004919091018054610100600160a81b0319166101006001600160a01b03938416021790556101a093909301518051600e8401556020810151600f8401556040808201516010850155606082015160118501556080820151601285015591810151601384015560c00151601490920180546001600160a01b031916929093169190911790915551869033907fc6851889326b4ff916523ef06f539b4cf0b81d78fc6e0f97c30e6223d183199090600090a3505050505050565b6033546001600160a01b03163314610fd25760405162461bcd60e51b815260040161038390613e2f565b603480546001600160a01b0319166001600160a01b0392909216919091179055565b600054610100900460ff1661100f5760005460ff1615611013565b303b155b6110765760405162461bcd60e51b815260206004820152602e60248201527f496e697469616c697a61626c653a20636f6e747261637420697320616c72656160448201526d191e481a5b9a5d1a585b1a5e995960921b6064820152608401610383565b600054610100900460ff16158015611098576000805461ffff19166101011790555b60338054336001600160a01b031991821617909155603a805482166001600160a01b03868116918217909255603c80548416928616929092179091556014603955603b805490921617905580156110f5576000805461ff00191690555b505050565b6033546001600160a01b031633146111415760405162461bcd60e51b815260206004820152600a60248201526927b7363c9037bbb732b960b11b6044820152606401610383565b82518451146111865760405162461bcd60e51b81526020600482015260116024820152706261642066656573207365657469676e7360781b6044820152606401610383565b60006111948787858561306e565b60808101516040519192509033907f30385c845b448a36257a6a1716e6ad2e1bc2cbe333cde1e69fe849ad6511adfe90600090a36111d88160800151878787610872565b50505050505050565b6111e961350c565b60008281526038602090815260409182902082516101c081018452815460ff80821615158352610100808304821615158487015262010000830482161515848801526301000000909204161515606083015260018301546080830152600283015460a083015260038301546001600160a01b0390811660c084015260048401541660e083015260058301805486518187028101870190975280875292959394918601939290918301828280156112be57602002820191906000526020600020905b8154815260200190600101908083116112aa575b505050505081526020016006820180548060200260200160405190810160405280929190818152602001828054801561132057602002820191906000526020600020905b81546001600160a01b03168152600190910190602001808311611302575b505050505081526020016007820180548060200260200160405190810160405280929190818152602001828054801561137857602002820191906000526020600020905b815481526020019060010190808311611364575b50505050508152602001600882018054806020026020016040519081016040528092919081815260200182805480156113da57602002820191906000526020600020905b81546001600160a01b031681526001909101906020018083116113bc575b50505050508152602001600982016040518060c0016040529081600082015481526020016001820154815260200160028201548152602001600382015481526020016004820160009054906101000a900460ff16600481111561144d57634e487b7160e01b600052602160045260246000fd5b600481111561146c57634e487b7160e01b600052602160045260246000fd5b8152600491909101546001600160a01b0361010090910481166020928301529183526040805160e081018252600e8601548152600f860154818401526010860154918101919091526011850154606082015260128501546080820152601385015460a082015260149094015490911660c0840152015292915050565b6035546001600160a01b031633146115125760405162461bcd60e51b815260040161038390613e2f565b600082815260386020908152604080832081516101c081018352815460ff80821615158352610100808304821615158488015262010000830482161515848701526301000000909204161515606083015260018301546080830152600283015460a083015260038301546001600160a01b0390811660c084015260048401541660e08301526005830180548551818802810188019096528086529295939491860193919290918301828280156115e757602002820191906000526020600020905b8154815260200190600101908083116115d3575b505050505081526020016006820180548060200260200160405190810160405280929190818152602001828054801561164957602002820191906000526020600020905b81546001600160a01b0316815260019091019060200180831161162b575b50505050508152602001600782018054806020026020016040519081016040528092919081815260200182805480156116a157602002820191906000526020600020905b81548152602001906001019080831161168d575b505050505081526020016008820180548060200260200160405190810160405280929190818152602001828054801561170357602002820191906000526020600020905b81546001600160a01b031681526001909101906020018083116116e5575b50505050508152602001600982016040518060c0016040529081600082015481526020016001820154815260200160028201548152602001600382015481526020016004820160009054906101000a900460ff16600481111561177657634e487b7160e01b600052602160045260246000fd5b600481111561179557634e487b7160e01b600052602160045260246000fd5b815260049182015461010090046001600160a01b039081166020928301529284526040805160e081018252600e8701548152600f870154818401526010870154818301526011870154606082015260128701546080820152601387015460a0820152601490960154841660c0870152930193909352603c549151636eb1769f60e11b815286821693810193909352306024840152929350600092169063dd62ed3e9060440160206040518083038186803b15801561185257600080fd5b505afa158015611866573d6000803e3d6000fd5b505050506040513d601f19601f8201168201806040525081019061188a9190613a81565b6101a083015160c0810151606090910151603c546040516323b872dd60e01b8152939450919290916000916001600160a01b03909116906323b872dd906118d990899030908990600401613d8b565b602060405180830381600087803b1580156118f357600080fd5b505af1158015611907573d6000803e3d6000fd5b505050506040513d601f19601f8201168201806040525081019061192b9190613979565b90508061194a5760405162461bcd60e51b815260040161038390613e56565b6001600160a01b038316158015906119625750600082115b156111d857603c5460405163a9059cbb60e01b81526001600160a01b038581166004830152602482018590529091169063a9059cbb90604401602060405180830381600087803b1580156119b557600080fd5b505af11580156119c9573d6000803e3d6000fd5b505050506040513d601f19601f820116820180604052508101906119ed9190613979565b9050806111d85760405162461bcd60e51b8152600401610383906020808252600490820152632a23242160e11b604082015260600190565b6033546001600160a01b03163314611a4f5760405162461bcd60e51b815260040161038390613e2f565b603580546001600160a01b0319166001600160a01b0392909216919091179055565b6034546001600160a01b03163314611a9b5760405162461bcd60e51b815260040161038390613e2f565b600082815260386020908152604080832081516101c081018352815460ff80821615158352610100808304821615158488015262010000830482161515848701526301000000909204161515606083015260018301546080830152600283015460a083015260038301546001600160a01b0390811660c084015260048401541660e0830152600583018054855181880281018801909652808652929593949186019391929091830182828015611b7057602002820191906000526020600020905b815481526020019060010190808311611b5c575b5050505050815260200160068201805480602002602001604051908101604052809291908181526020018280548015611bd257602002820191906000526020600020905b81546001600160a01b03168152600190910190602001808311611bb4575b5050505050815260200160078201805480602002602001604051908101604052809291908181526020018280548015611c2a57602002820191906000526020600020905b815481526020019060010190808311611c16575b5050505050815260200160088201805480602002602001604051908101604052809291908181526020018280548015611c8c57602002820191906000526020600020905b81546001600160a01b03168152600190910190602001808311611c6e575b50505050508152602001600982016040518060c0016040529081600082015481526020016001820154815260200160028201548152602001600382015481526020016004820160009054906101000a900460ff166004811115611cff57634e487b7160e01b600052602160045260246000fd5b6004811115611d1e57634e487b7160e01b600052602160045260246000fd5b815260049182015461010090046001600160a01b039081166020928301529284526040805160e081018252600e8701548152600f870154818401526010870154818301526011870154606082015260128701546080820152601387015460a0820152601490960154841660c0870152930193909352603c549151636eb1769f60e11b815286821693810193909352306024840152929350600092169063dd62ed3e9060440160206040518083038186803b158015611ddb57600080fd5b505afa158015611def573d6000803e3d6000fd5b505050506040513d601f19601f82011682018060405250810190611e139190613a81565b905081610180015160200151811015611e5d5760405162461bcd60e51b815260206004820152600c60248201526b6e6f20616c6c6f77616e636560a01b6044820152606401610383565b61018082015160200151603c546040516323b872dd60e01b81526000916001600160a01b0316906323b872dd90611e9c90889030908790600401613d8b565b602060405180830381600087803b158015611eb657600080fd5b505af1158015611eca573d6000803e3d6000fd5b505050506040513d601f19601f82011682018060405250810190611eee9190613979565b905080611f0d5760405162461bcd60e51b815260040161038390613e56565b603b546040516331a9108f60e11b8152600481018890526001600160a01b03909116906323b872dd908290636352211e9060240160206040518083038186803b158015611f5957600080fd5b505afa158015611f6d573d6000803e3d6000fd5b505050506040513d601f19601f82011682018060405250810190611f9191906138e5565b87896040518463ffffffff1660e01b8152600401611fb193929190613d8b565b600060405180830381600087803b158015611fcb57600080fd5b505af1158015611fdf573d6000803e3d6000fd5b5050505060005b846101200151518110156111d85760006064866101000151838151811061201d57634e487b7160e01b600052603260045260246000fd5b6020026020010151856120309190614098565b61203a9190614078565b603c5461012088015180519293506001600160a01b039091169163a9059cbb91908590811061207957634e487b7160e01b600052603260045260246000fd5b6020026020010151836040518363ffffffff1660e01b81526004016120b39291906001600160a01b03929092168252602082015260400190565b602060405180830381600087803b1580156120cd57600080fd5b505af11580156120e1573d6000803e3d6000fd5b505050506040513d601f19601f820116820180604052508101906121059190613979565b9250826121245760405162461bcd60e51b815260040161038390613e12565b508061212f816140ce565b915050611fe6565b6002600154141561218a5760405162461bcd60e51b815260206004820152601f60248201527f5265656e7472616e637947756172643a207265656e7472616e742063616c6c006044820152606401610383565b60026001818155600083815260386020908152604080832081516101c081018352815460ff8082161515835261010080830482161515848801526201000083048216151584870152630100000090920416151560608301529582015460808201529581015460a087015260038101546001600160a01b0390811660c088015260048201541660e087015260058101805483518186028101860190945280845294969591949186019390919083018282801561226457602002820191906000526020600020905b815481526020019060010190808311612250575b50505050508152602001600682018054806020026020016040519081016040528092919081815260200182805480156122c657602002820191906000526020600020905b81546001600160a01b031681526001909101906020018083116122a8575b505050505081526020016007820180548060200260200160405190810160405280929190818152602001828054801561231e57602002820191906000526020600020905b81548152602001906001019080831161230a575b505050505081526020016008820180548060200260200160405190810160405280929190818152602001828054801561238057602002820191906000526020600020905b81546001600160a01b03168152600190910190602001808311612362575b50505050508152602001600982016040518060c0016040529081600082015481526020016001820154815260200160028201548152602001600382015481526020016004820160009054906101000a900460ff1660048111156123f357634e487b7160e01b600052602160045260246000fd5b600481111561241257634e487b7160e01b600052602160045260246000fd5b8152600491909101546001600160a01b0361010090910481166020928301529183526040805160e081018252600e8601548152600f860154818401526010860154918101919091526011850154606082015260128501546080820152601385015460a082015260149094015490911660c0840152015280519091506124bf5760405162461bcd60e51b81526020600482015260036024820152624e465360e81b6044820152606401610383565b603b546040516331a9108f60e11b8152600481018490526000916001600160a01b031690636352211e9060240160206040518083038186803b15801561250457600080fd5b505afa158015612518573d6000803e3d6000fd5b505050506040513d601f19601f8201168201806040525081019061253c91906138e5565b603c54604051636eb1769f60e11b81523360048201523060248201529192506000916001600160a01b039091169063dd62ed3e9060440160206040518083038186803b15801561258b57600080fd5b505afa15801561259f573d6000803e3d6000fd5b505050506040513d601f19601f820116820180604052508101906125c39190613a81565b90508260a001518110156126085760405162461bcd60e51b815260206004820152600c60248201526b6e6f20616c6c6f77616e636560a01b6044820152606401610383565b60a08301516000858152603760205260408120546036805491929161262f906001906140b7565b8154811061264d57634e487b7160e01b600052603260045260246000fd5b600091825260208083209091015480835260379091526040909120839055603680549192509061267f906001906140b7565b8154811061269d57634e487b7160e01b600052603260045260246000fd5b9060005260206000200154603683815481106126c957634e487b7160e01b600052603260045260246000fd5b60009182526020909120015560368054806126f457634e487b7160e01b600052603160045260246000fd5b6000828152602080822060001990840181018390559092019092558188523360e0890190815260a089018381528a8452603883526040938490208a5181548c860151968d015160608e015161ffff1990921692151561ff0019169290921761010097151588021763ffff00001916620100009215159290920263ff00000019169190911763010000009115159190910217815560808b015160018201559051600282015560c08a01516003820180546001600160a01b03199081166001600160a01b039384161790915592516004830180549094169116179091559188015180518993926127e992600585019291019061346c565b5061012082015180516128069160068401916020909101906134b7565b50610140820151805161282391600784019160209091019061346c565b5061016082015180516128409160088401916020909101906134b7565b506101808201518051600983019081556020820151600a8401556040820151600b8401556060820151600c8401556080820151600d8401805460ff1916600183600481111561289f57634e487b7160e01b600052602160045260246000fd5b021790555060a09182015160049182018054610100600160a81b0319166101006001600160a01b03938416021790556101a094909401518051600e8501556020810151600f8501556040808201516010860155606082015160118601556080820151601286015592810151601385015560c00151601490930180546001600160a01b03191693851693909317909255603c5490516323b872dd60e01b815260009391909116916323b872dd9161295b91339130918a9101613d8b565b602060405180830381600087803b15801561297557600080fd5b505af1158015612989573d6000803e3d6000fd5b505050506040513d601f19601f820116820180604052508101906129ad9190613979565b9050806129cc5760405162461bcd60e51b815260040161038390613e56565b603b546040516323b872dd60e01b81526001600160a01b03909116906323b872dd90612a0090899033908d90600401613d8b565b600060405180830381600087803b158015612a1a57600080fd5b505af1158015612a2e573d6000803e3d6000fd5b505050506000606460395486612a449190614098565b612a4e9190614078565b9050612a5a81866140b7565b945060005b88610120015151811015612bb057600060648a61010001518381518110612a9657634e487b7160e01b600052603260045260246000fd5b602002602001015188612aa99190614098565b612ab39190614078565b603c546101208c015180519293506001600160a01b039091169163a9059cbb919085908110612af257634e487b7160e01b600052603260045260246000fd5b6020026020010151836040518363ffffffff1660e01b8152600401612b2c9291906001600160a01b03929092168252602082015260400190565b602060405180830381600087803b158015612b4657600080fd5b505af1158015612b5a573d6000803e3d6000fd5b505050506040513d601f19601f82011682018060405250810190612b7e9190613979565b935083612b9d5760405162461bcd60e51b815260040161038390613e12565b5080612ba8816140ce565b915050612a5f565b5060005b88610160015151811015612d1b57600060648a61014001518381518110612beb57634e487b7160e01b600052603260045260246000fd5b602002602001015184612bfe9190614098565b612c089190614078565b603c546101608c015180519293506001600160a01b039091169163a9059cbb919085908110612c4757634e487b7160e01b600052603260045260246000fd5b6020026020010151836040518363ffffffff1660e01b8152600401612c819291906001600160a01b03929092168252602082015260400190565b602060405180830381600087803b158015612c9b57600080fd5b505af1158015612caf573d6000803e3d6000fd5b505050506040513d601f19601f82011682018060405250810190612cd39190613979565b935083612d085760405162461bcd60e51b81526020600482015260036024820152622a232960e91b6044820152606401610383565b5080612d13816140ce565b915050612bb4565b5060606101208901819052610100890152604051899033906001600160a01b038a16907ff3ecb4dab83f41da3035ff9cb3a2ef0c3027ebb89ae4e4b822d7c109e869a2fc90600090a450506001805550505050505050565b6034546001600160a01b0316331480612d9657506035546001600160a01b031633145b612db25760405162461bcd60e51b815260040161038390613e2f565b600082815260386020908152604091829020835181548584015194860151606087015161ffff1990921692151561ff0019169290921761010095151586021763ffff00001916620100009215159290920263ff0000001916919091176301000000911515919091021781556080840151600182015560a0840151600282015560c08401516003820180546001600160a01b03199081166001600160a01b039384161790915560e08601516004840180549092169216919091179055918301518051849392612e8792600585019291019061346c565b506101208201518051612ea49160068401916020909101906134b7565b506101408201518051612ec191600784019160209091019061346c565b506101608201518051612ede9160088401916020909101906134b7565b506101808201518051600983019081556020820151600a8401556040820151600b8401556060820151600c8401556080820151600d8401805460ff19166001836004811115612f3d57634e487b7160e01b600052602160045260246000fd5b021790555060a0918201516004919091018054610100600160a81b0319166101006001600160a01b03938416021790556101a093909301518051600e8401556020810151600f84015560408101516010840155606081015160118401556080810151601284015590810151601383015560c00151601490910180546001600160a01b031916919092161790555050565b6034546001600160a01b0316331480612ff057506035546001600160a01b031633145b61300c5760405162461bcd60e51b815260040161038390613e2f565b603b546040516323b872dd60e01b81526001600160a01b03909116906323b872dd9061304090869086908690600401613d8b565b600060405180830381600087803b15801561305a57600080fd5b505af11580156111d8573d6000803e3d6000fd5b61307661350c565b603b5460405163d0def52160e01b81526001600160a01b039091169063d0def521906130a89033908990600401613daf565b600060405180830381600087803b1580156130c257600080fd5b505af11580156130d6573d6000803e3d6000fd5b5050505060006001603b60009054906101000a90046001600160a01b03166001600160a01b0316629a9b7b6040518163ffffffff1660e01b815260040160206040518083038186803b15801561312b57600080fd5b505afa15801561313f573d6000803e3d6000fd5b505050506040513d601f19601f820116820180604052508101906131639190613a81565b61316d91906140b7565b90506131776135a0565b61317f6135f5565b6000604051806101c00160405280600015158152602001600015158152602001600015158152602001600015158152602001858152602001898152602001336001600160a01b03168152602001336001600160a01b03168152602001878152602001888152602001878152602001888152602001848152602001838152509050806038600086815260200190815260200160002060008201518160000160006101000a81548160ff02191690831515021790555060208201518160000160016101000a81548160ff02191690831515021790555060408201518160000160026101000a81548160ff02191690831515021790555060608201518160000160036101000a81548160ff0219169083151502179055506080820151816001015560a0820151816002015560c08201518160030160006101000a8154816001600160a01b0302191690836001600160a01b0316021790555060e08201518160040160006101000a8154816001600160a01b0302191690836001600160a01b0316021790555061010082015181600501908051906020019061331e92919061346c565b50610120820151805161333b9160068401916020909101906134b7565b50610140820151805161335891600784019160209091019061346c565b5061016082015180516133759160088401916020909101906134b7565b506101808201518051600983019081556020820151600a8401556040820151600b8401556060820151600c8401556080820151600d8401805460ff191660018360048111156133d457634e487b7160e01b600052602160045260246000fd5b021790555060a0918201516004919091018054610100600160a81b0319166101006001600160a01b03938416021790556101a093909301518051600e8401556020810151600f84015560408101516010840155606081015160118401556080810151601284015590810151601383015560c00151601490910180546001600160a01b0319169190921617905598975050505050505050565b8280548282559060005260206000209081019282156134a7579160200282015b828111156134a757825182559160200191906001019061348c565b506134b392915061363b565b5090565b8280548282559060005260206000209081019282156134a7579160200282015b828111156134a757825182546001600160a01b0319166001600160a01b039091161782556020909201916001909101906134d7565b604051806101c00160405280600015158152602001600015158152602001600015158152602001600015158152602001600081526020016000815260200160006001600160a01b0316815260200160006001600160a01b031681526020016060815260200160608152602001606081526020016060815260200161358e6135a0565b815260200161359b6135f5565b905290565b6040518060c0016040528060008152602001600081526020016000815260200160008152602001600060048111156135e857634e487b7160e01b600052602160045260246000fd5b8152600060209091015290565b6040518060e0016040528060008152602001600081526020016000815260200160008152602001600081526020016000815260200160006001600160a01b031681525090565b5b808211156134b3576000815560010161363c565b803561365b81614115565b919050565b600082601f830112613670578081fd5b8135602061368561368083614054565b614023565b80838252828201915082860187848660051b89010111156136a4578586fd5b855b858110156136cb5781356136b981614115565b845292840192908401906001016136a6565b5090979650505050505050565b600082601f8301126136e8578081fd5b813560206136f861368083614054565b80838252828201915082860187848660051b8901011115613717578586fd5b855b858110156136cb57813584529284019290840190600101613719565b803561365b8161412d565b600082601f830112613750578081fd5b813567ffffffffffffffff81111561376a5761376a6140ff565b61377d601f8201601f1916602001614023565b818152846020838601011115613791578283fd5b816020850160208301379081016020019190915292915050565b600060e082840312156137bc578081fd5b60405160e0810181811067ffffffffffffffff821117156137df576137df6140ff565b8060405250809150823581526020830135602082015260408301356040820152606083013560608201526080830135608082015260a083013560a082015261382960c08401613650565b60c08201525092915050565b600060c08284031215613846578081fd5b60405160c0810181811067ffffffffffffffff82111715613869576138696140ff565b8060405250809150823581526020830135602082015260408301356040820152606083013560608201526080830135600581106138a557600080fd5b60808201526138b660a08401613650565b60a08201525092915050565b6000602082840312156138d3578081fd5b81356138de81614115565b9392505050565b6000602082840312156138f6578081fd5b81516138de81614115565b60008060408385031215613913578081fd5b823561391e81614115565b9150602083013561392e81614115565b809150509250929050565b60008060006060848603121561394d578081fd5b833561395881614115565b9250602084013561396881614115565b929592945050506040919091013590565b60006020828403121561398a578081fd5b81516138de8161412d565b60008060008060008060c087890312156139ad578384fd5b863567ffffffffffffffff808211156139c4578586fd5b6139d08a838b01613740565b97506020890135965060408901359150808211156139ec578586fd5b6139f88a838b01613660565b95506060890135915080821115613a0d578384fd5b613a198a838b016136d8565b94506080890135915080821115613a2e578384fd5b613a3a8a838b01613660565b935060a0890135915080821115613a4f578283fd5b50613a5c89828a016136d8565b9150509295509295509295565b600060208284031215613a7a578081fd5b5035919050565b600060208284031215613a92578081fd5b5051919050565b60008060408385031215613aab578182fd5b82359150602083013561392e81614115565b60008060408385031215613acf578182fd5b82359150602083013567ffffffffffffffff80821115613aed578283fd5b908401906103208287031215613b01578283fd5b613b09613ff9565b613b1283613735565b8152613b2060208401613735565b6020820152613b3160408401613735565b6040820152613b4260608401613735565b60608201526080830135608082015260a083013560a0820152613b6760c08401613650565b60c0820152613b7860e08401613650565b60e08201526101008084013583811115613b90578586fd5b613b9c898287016136d8565b8284015250506101208084013583811115613bb5578586fd5b613bc189828701613660565b8284015250506101408084013583811115613bda578586fd5b613be6898287016136d8565b8284015250506101608084013583811115613bff578586fd5b613c0b89828701613660565b8284015250506101809150613c2287838501613835565b82820152613c348761024085016137ab565b6101a08201528093505050509250929050565b60008060008060808587031215613c5c578182fd5b8435935060208501359250604085013567ffffffffffffffff80821115613c81578384fd5b613c8d88838901613660565b93506060870135915080821115613ca2578283fd5b50613caf878288016136d8565b91505092959194509250565b6000815180845260208085019450808401835b83811015613cf35781516001600160a01b031687529582019590820190600101613cce565b509495945050505050565b6000815180845260208085019450808401835b83811015613cf357815187529582019590820190600101613d11565b80518252602081015160208301526040810151604083015260608101516060830152608081015160058110613d7257634e487b7160e01b600052602160045260246000fd5b608083015260a0908101516001600160a01b0316910152565b6001600160a01b039384168152919092166020820152604081019190915260600190565b60018060a01b0383168152600060206040818401528351806040850152825b81811015613dea57858101830151858201606001528201613dce565b81811115613dfb5783606083870101525b50601f01601f191692909201606001949350505050565b6020808252600390820152622a232360e91b604082015260600190565b6020808252600d908201526c1858d8d95cdcc819195b9a5959609a1b604082015260600190565b6020808252600290820152612a2360f11b604082015260600190565b60208152613e8560208201835115159052565b60006020830151613e9a604084018215159052565b5060408301518015156060840152506060830151801515608084015250608083015160a083015260a083015160c083015260c0830151613ee560e08401826001600160a01b03169052565b5060e0830151610100613f02818501836001600160a01b03169052565b8085015191505061012061032081850152613f21610340850183613cfe565b9150808501519050601f19610140818685030181870152613f428484613cbb565b935080870151925050610160818685030181870152613f618484613cfe565b935080870151925050610180818685030181870152613f808484613cbb565b935080870151925050506101a0613f9981860183613d2d565b8501518051610260860152602081015161028086015260408101516102a086015260608101516102c086015260808101516102e086015260a081015161030086015260c08101516001600160a01b03166103208601529050509392505050565b6040516101c0810167ffffffffffffffff8111828210171561401d5761401d6140ff565b60405290565b604051601f8201601f1916810167ffffffffffffffff8111828210171561404c5761404c6140ff565b604052919050565b600067ffffffffffffffff82111561406e5761406e6140ff565b5060051b60200190565b60008261409357634e487b7160e01b81526012600452602481fd5b500490565b60008160001904831182151516156140b2576140b26140e9565b500290565b6000828210156140c9576140c96140e9565b500390565b60006000198214156140e2576140e26140e9565b5060010190565b634e487b7160e01b600052601160045260246000fd5b634e487b7160e01b600052604160045260246000fd5b6001600160a01b038116811461412a57600080fd5b50565b801515811461412a57600080fdfea26469706673582212209fd7d0486448bbeb6e392c1883e99d4db0c91f32ef3cc4d334d7d11baad70c9864736f6c63430008040033",
  "linkReferences": {},
  "deployedLinkReferences": {}
}